:020000040000FA
:030000000200E318
:10008300020DE200000080FB120113B9000302001D
:10009300CDE4900200789279018002F0A3D8FCD9D4
:1000A300FA900291AA82AB83900116785A79018063
:1000B30015E493A3AC82AD838A828B83F0A3AA82D7
:1000C300AB838C828D83D8E9D9E775822875832227
:1000D30074001200F575828675830074001200F5B2
:1000E30075D0007581BF751000751102759F0002F0
:1000F300008BC09FF59FE473D09F22D083D082C032
:100103009FE493C0E0740193C0E0740293F59F22CF
:10011300790122FF00000000000000000000000041
:1001230000000049303132333435363738394142F3
:100133004344454600286E756C6C20706F696E747D
:10014300657229003F3F3F000000803FF9021550D0
:10015300B743BA510000204100E7DB2E0000A04066
:1001630010000000080000000A0000001200FE2535
:100173001E001200FE541F001200FEE11F001200B9
:10018300FEF11F001200FEB420001200FED6220072
:100193001200FE0C23001200FE1E24001200FEFAC1
:1001A30023001200FE1424001200FE192400120082
:1001B300FEB323001200FEC820001200FEF420004C
:1001C3001200FE0421001200FE1A21001200FE2F6D
:1001D30021001200FE4421001200FE6821001200DB
:1001E300FE7121001200FE8621001200FE9B2100F9
:1001F3001200FEBB21001200FEBE21001200FEDB36
:1002030023001200FE7F23001200FE8A2300120047
:10021300FE3723001200FE7522001200FE86220024
:100223001200FE230E001200FEFB1200E0667010A7
:1002330008A3E066700A08A3E066700408A3E066FA
:1002430022C3E7960809E7960809E7960809E7969F
:10025300A2D265D03322080808E630E711120A95C6
:10026300120271080808C64480C618181822181804
:1002730018E9799EC608CAC608CBC608CCC6C3709F
:10028300207996CACBCC7019798ECBCC7013798632
:10029300CC700EF9802ACA33CACB33CBCC33CC33E0
:1002A3001930E7F2CCCBCA3350147004EA30E00DB6
:1002B300E4CA3ACACB3BCBCC3CCC500209C3E913CA
:1002C300C6CC182313C6CB18C6CA18C6F922120304
:1002D3001120F01430E72B74FFFCFBFA747F8022AB
:1002E300E4FCFBFA7480801AB48008BC00F2BB0003
:1002F300EF800F50EBF9E4C39AFAE49BFBE49CFC18
:10030300E499C6CC18C6CB18C6CA18C6F922E4C9E4
:10031300C608CAC608CBC6D3330308CCC63392F08B
:10032300C3947F402E94184019C9B90704CACBCC93
:10033300225025C309CA33CACB33CBCC33CC33D9F0
:10034300F422F4600DC9CCC313CB13CBCA13CAD99F
:10035300F6CC22E4FCFBFA2214FCFBFA22E6C333BC
:1003630018461846184622E7C33319471947194751
:1003730022181818E6084608700AE608C333700501
:10038300E633F4220822191919E7094709700AE725
:1003930009C3337005E733F4220922E6084608C38C
:1003A300134608336002E633F422E7094709C3130F
:1003B3004709336002E733F42212039E60251203D8
:1003C300AD6020120360700302036A080808E76641
:1003D30070101819E766700A1819E766700418197F
:1003E300E76622F42212039E601C1203AD6017120B
:1003F3000360700712036A7001D322C0D012036A2C
:100403007006D0D0B322C32233D0D0501430E0F6DC
:10041300C3E7960809E7960809E7960809E796B33C
:100423002220E0D5E6970809E6970809E697080928
:10043300E697B32212039E601B1203AD60161203EC
:1004430060700712036A600CB322C0D012036A7093
:1004530005D0D022C32233D0D0501330E0EBC3E712
:10046300960809E7960809E7960809E7962220E027
:10047300E4E6970809E6970809E6970809E697224C
:100483000012039E604F1203AD6012E7548066F6BC
:10049300120374701112036A703B090909F4F61808
:1004A300F618F618F622120389701512036008086D
:1004B3000860EAE6447FF618768018E4F618F62218
:1004C300120360601612036A7012E4F608F608F667
:1004D30008E65480F609090918181822EAC0E0EB67
:1004E300C0E0ECC0E0EDC0E0E687F0A4FBACF008B0
:1004F300E687F0A42CFCE435F0FA1809E687F0A4AB
:100503002C4B60027401CA35F0FCE433FB09E68727
:10051300F0D2F7A42CCB35F0FC1908E687F0A42B16
:10052300CC35F0FBE433FD0819E687F0D2E7A42CC1
:100533004ACB35F0CD3400FC09E687F0D2E7A42D91
:10054300CC35F0FDE433FA0918E687F0D2F7A42C92
:10055300CD35F0CA3400FC08E687F0D2E7D2F7A421
:100563002ACC35F07A7E20E70B0ACB33CBCD33CDC3
:10057300CC33CC33CB3350147004ED30E00ED2F1D6
:10058300E4CD3DCDCC3CCC3B5005DA05C2F1EB5478
:100593007FC63308E63392F0FBE73309E733C39AA8
:1005A300502D2B70190C0D4C4D70151806E608C311
:1005B30033700D20F10AA2F013F6E418800B4024E7
:1005C300E4F630F002768018F618F618F68024D395
:1005D3003B14501074FFA2F013F6187680E418F65B
:1005E30018F6800FA2F013F618E63303F618ECF6AC
:1005F30018EDF6D0E0FDD0E0FCD0E0FBD0E0FA222D
:100603001203AD604612039E603DE9687008F61858
:10061300F618F618F622748067F7120637090909E7
:10062300748067F72212039E601D1203AD700519D3
:100633001919801A120374701F120389C37003E619
:10064300673319191940071818182208080874FF86
:10065300F618F618F618F622120389601712036AC1
:10066300702192F01203607019501720F0140808DB
:1006730008090909E7F61819E7F61819E7F618192A
:10068300E7F62212036060E6E869701F0808E624B3
:1006930080F608E436F618547FB47F0CE654806085
:1006A30007F6E418F618F622181822E9C6CC08C68D
:1006B300CD08C6CE08C6CFC0E0E8C0E0EAC0E0EB94
:1006C300C0E009E9F809E7FA09E7FBE6F918E6F8F3
:1006D300C3EC98ED99EE9AEBC2E7F5F0EFC2E7951C
:1006E300F0500E600CEBCFFBEACEFAE9CDF9E8CC83
:1006F300F8EAA2E7D2E7FAEB33FB13F5F0EEA2E751
:10070300D2E7FEEF33FFC5F013A2E730E601B313E0
:10071300C5F0C3C0E0C0F07F00C39BFB605B9418CF
:10072300600C401AD0E023F9D0E0F80208068AF002
:10073300E9486003D2F0E4AFF0FAF9F8803BEB301C
:10074300E40D89F0EA6003D2F0E4AFF0F9CAF8EB04
:1007530030E30D88F0EF6002D2F0AFF0E4CAC9F8DD
:10076300EB54076014FBC3EA13FAE913F9E813F82F
:10077300EF135002D2E0FFDBEDD0E0C0E030E73909
:10078300C3E49FFFF5F0EC98FC42F0ED99FD42F0D5
:10079300EE9AFE42F0D0E0F9D0E0F8E5F0607AE9B5
:1007A30023F9EE20E742D8028067C3EF33FFEC332F
:1007B300FCED33FDEE33FE80EAEC28FCED39FDEE73
:1007C3003AFED0E023F9D0E0F84002801BC3EE13D9
:1007D300FEED13FDEC13FCEF135002D2E0FF08B85B
:1007E30000067F7F74FF802EEF3350178CF020F0CC
:1007F3000260100CBC000C0DBD00080EBE00040806
:10080300E860DFE933E813FFEE2313FE4F4D4C801E
:1008130008E95480FFE4FEFDFCEE33EF33F470048B
:10082300FCFD7E80D0E0FBD0E0FAD0E0F8D0E0CF52
:10083300C618CEC618CDC618CCC6F92212039E70B0
:1008430004181818221203AD700D74FFF61819F668
:100853001819F61819F622E7548066F61203607029
:100863000F12036A70F014F608F608F608F680D142
:1008730012036A700CF608F608768008E6447F8057
:10088300EC12038C700C12037760BFE65480F6E41D
:1008930080BB120377700519191980A5E869700CDC
:1008A300763F18768018F618F6E8F922E6CDC0E010
:1008B30018ECC0E0E633CD33CDD313F6E719FCE7EC
:1008C300191933CC33C3947F400ECD9D502408E6D1
:1008D3005480F6E418F6800FF4043D14501408E62F
:1008E300447FF6187680E418F618F6D0E0FCD0E0E2
:1008F300FD22CCD313CCFD18E4C6CBC0E018E4C66C
:10090300CAC0E00808ED08C633E613F618E433C698
:1009130075F003C3CA97CA09CB97CB199C40047DD2
:1009230008802EBD00030209E816B6FF0506060877
:100933001618C3CA33CACB33CB33CA27CA09CB373A
:10094300CB193CC37D08803E187D0820E75CC63385
:10095300C6CA33CACB33CB33DDF1D5F0EB30E77BFB
:10096300CA97CA09CB974ACB199C406F4B7025E6AF
:1009730020E0218066187D08C3CA97CA09CB97CBAC
:10098300199CD3C633C6CA33CACB33CB3350C9DD64
:10099300E7D5F0E1D3E4C636C608C636C608C63680
:1009A300C608C636C61818188031C3CA97CA09CBF9
:1009B30097CB199CB34097C633C6CA33CACB33CB44
:1009C30033DD34D5F02EC6A2E0C640C8CA27CA0913
:1009D300CB37194A70BECB3CB480B90808E633085C
:1009E300E633601F181818D0E0FAD0E0FBD0E0FC23
:1009F300D0E0FD22187D08CA27CA09CB37CB193CA2
:100A0300D3808013F618E4B67F11F618B6FF0EF6FE
:100A130018C60470D20808768080CAF618F618F64D
:100A230080C5E4CFC0E0E4CEC0E0E4CDC0E0E4CCD8
:100A3300C0E075F020C3E633F608E633F608E63384
:100A4300F608E633F6181818EC33FCED33FDEE33F5
:100A5300FEEF33FFC3EC9709ED9709EE9709EF9784
:100A6300191919400FFFEC97FC09ED97FD09EE9753
:100A7300FE191906D5F0BEECF709EDF709EEF709F3
:100A8300EFF7191919D0E0FCD0E0FDD0E0FED0E07B
:100A9300FF22181818E4C396F608E496F608E496BD
:100AA300F608E496F622E0F608A3E0F608A3E0F6DB
:100AB30008A3E0F622E6F008A3E6F008A3E6F008B0
:100AC300A3E6F022CAC0E0E6F0A308DAFAD0E0FA1F
:100AD30022CAC0E0E0A3C582CCC582C583CDC5834D
:100AE300F0A3C582CCC582C583CDC583DAE6D0E049
:100AF300CA22C3E498F8E499F9120B368026C3E4BA
:100B03009AFAE49BFBE920E7E9120B36E498F8E450
:100B130099F922C3E498F8E499F9120B36E498F8AA
:100B2300E499F9C3E49AFAE49BFB22EB20E7CFE9CB
:100B330020E7E0B90010BB0008E88AF084F8AAF0C7
:100B430022E4FBC8FA22EB70227B10C833C8C933F6
:100B5300C9335007C39AC3DBF280069A50012ADBDC
:100B6300EAC833F4C8C933F4C9FA2275F008E4C8F3
:100B730033C8C933C933C99AC99B5004C92AC93B6D
:100B8300D5F0ECFBC833F4C8E4C9FA22251010AF42
:100B930008F510400215118008F51040021511D216
:100BA300AF22C0D0251010AF08F5105002051180F8
:100BB30008F51050020511D2AFD0D0222510F582CE
:100BC30010AF08F510400215118008F5104002150A
:100BD30011D2AF851183222510F582E43511F583F7
:100BE30022E4732510C582C0E0E51134FFC583C03C
:100BF300E0E510C3958224F8F8E4C5A88583118540
:100C03008210C5A8E8CEF0A3E520F0A37808E60893
:100C1300F0A3DEFAEFF0A3E58124FAF8E608F0A3E7
:100C2300E608F0A3E608F0A30808E608F0A3E60840
:100C3300F0A315811581D0E0FED0E0F81581158170
:100C43001581E8C0E0EEC0E022851183851082E0C3
:100C5300A3FEE0A3F5207808E0A3F608DFFAE0A3FB
:100C6300FFE0A3C0E0E0A3C0E0E0A3C0E0E0A3C0D6
:100C7300E0E0A3C0E0E4C5A8858210858311C5A880
:100C8300D083D0820200FBC0D02510C582C0E0E52E
:100C93001134FFC583C0E0E510C3958224F310AF80
:100CA300088583118582108008858311858210D27F
:100CB300AFC8F0A3E9F0A3EAF0A3EBF0A37908E748
:100CC30009F0A3D8FAECF0A3EDF0A3EEF0A3EFF054
:100CD300A3D0E0F0A3D0E0F0A3D0E0F0A3E520F0B0
:100CE300A3E5F0F0A322851183851082E0C0E0A381
:100CF300E0F9A3E0FAA3E0FBA37808E0F608A3DF9A
:100D0300FAE0FCA3E0FDA3E0FEA3E0FFA3E0C0E064
:100D1300A3E0C0E0A3E0F5D0A3E0F520A3E0A3F5B2
:100D2300F0E4C5A8858311858210C5A8D082D0833D
:100D3300D0E0F8D0E032740280027401C0E0F40421
:100D4300120BBFD0E0120AC72274028000CCC0E0AD
:100D5300EDC0E0E510C39CCCAD1150011D10AF06F2
:100D63008C108D1180068C108D11D2AF120AD4D045
:100D7300E0FDD0E0FC22D083D082CCC0E0E493A39A
:100D83006006120DA31470FAE493A36006120DC259
:100D93001470FAD0E0FCE493A3C0E0E493C0E02233
:100DA300C0E0E493A3D39C5010E493A3C39C400AF4
:100DB300D0E0D0E0D0E0020D96A3A3A3D0E022C000
:100DC300E0E493A36C7009D0E0D0E0D0E0020D968C
:100DD300A3A3D0E022EAF5C1A2E950FCC2E922C0F4
:100DE300E074F2120C8AA2AFE492E0FEC2AFE5E92E
:100DF300A2E65022900289E064007004A3E064003C
:100E0300600E900289E0F8A3E0F5838882120BE478
:100E1300759B0053E9BFEEA2E092AF7F01020CE99C
:100E230074F0120BE674FD120B8F7402120BDAE9E5
:100E3300F08A088B098C0A8D0B7415120BDAE0FC0F
:100E4300A3E0FD851082851183E4F0A3F09002C630
:100E5300780C120AA97808790C1203E85003020FE0
:100E63000190029D780C120AA97808790C1203BC30
:100E73006003020F557417120BDAE07003020F9729
:100E8300851082851183C082C0837413120BDA121A
:100E93001D07D083D08212128B502C8510828511AE
:100EA30083C3E094FCA3E094FFA2D265D033401740
:100EB3007402120BDAE4121DC7F97413120BDAC3AE
:100EC300E098F0A3E099F07413120BDA1212C974CC
:100ED30018120BDAE07003020F947417120BDAE4A2
:100EE300020F969002CA780C120AA97808790C129C
:100EF300083F851082851183E0240A121E049002A4
:100F0300CE780C120AA97808790C1203E840D49021
:100F130002D2780C120AA97808790C1203E840036C
:100F2300020E789002D2780C120AA97808790C1272
:100F3300083F121DFB80D89002CA780C120AA978C8
:100F430008790C120483851082851183E024F6123C
:100F530012CC9002D6780C120AA97808790C1204E4
:100F63003740D49002C6780C120AA97808790C127B
:100F730004374003020E789002D2780C120AA97843
:100F830008790C1204838510828511831212C9809B
:100F9300D27401F07402120BDAE060077A007B006E
:100FA30002109512129C506D1212BA120BDAE0FE67
:100FB300A3E0FFEE7001EF70087418120BDAE06023
:100FC3000B742E8C828D83F0A30CAD837A007B008F
:100FD30080091212BA120BDA1212C9EA24FF1AEBB1
:100FE30034FFFB85108285118312127F500C74131A
:100FF300120BDAE07002A3E070D8851082851183AA
:1010030074FFC39EF874FF9FF912128B50030211F1
:10101300647A018089851082851183121D07C3E4D8
:1010230098FAE499FB806B85080C85090D850A0EF7
:10103300850B0F780C1202D1AE0CE50D3395E0F55C
:101043000EF50F780C1202597808790C12060390EA
:1010530002D2780C120AA97808790C120483EE12D2
:1010630012ADEAF8EBF97401280AE439FBE87001E0
:10107300E9701F7413120BDAE07002A3E0700874B6
:1010830018120BDAE0600B742E8C828D83F0A30CA4
:10109300AD837413120BDA12127F508B9002DA783D
:1010A3000C120AA97808790C1203E84003021164B0
:1010B3007E01EC24FFF8ED34FFF97415120BDAE02E
:1010C300F508A3E0F50988828983E0642E6010E0C7
:1010D3002EF0643A70077430F07E0180027E00E8DF
:1010E300FAE9FBEA24FF18EB34FFF9C3E5089AE5B4
:1010F300099B40D2EE7001E460677402120BDAE0E0
:101103006036ECF8ED800A12126AE824FF18E9341D
:10111300FFF9C3E50898E509995018121257E064DE
:101123002E70E4E824FEF582E934FFF5831212649D
:10113300F980D7121DFB801E8C828D83A3AC82ADF8
:1011430083ECF8ED8006121257121264F9C3E50816
:1011530098E5099940F07415120BDA12129774315D
:10116300F07417120BDAE07005801A1CAD83EC24BF
:10117300FFF582ED34FFF583E0643060EEE0642E2A
:1011830070031CAD837402120BDAE0700302123F8A
:101193001212AFA3A98312129C5018742D8C828D46
:1011A30083F00CE9FD851082851183121D31121223
:1011B300D7800A742B8C828D83F00CE9FD7E007F2F
:1011C30000EC240AFCED3400FDEE24010EEF3400A4
:1011D300FF121271120B2EEA1212AD121271120BC0
:1011E3002E1212E47002A3E070DFC3EE9402121217
:1011F3004E40D6EEFAEFFBC3E49EF8E49FF9EC28E9
:10120300F582ED39F583E0C0E0C3E49AF8E49BF995
:10121300EC28F8ED39F9EE28F8EF39F974F528F5EB
:101223008274FF39F583D0E0F0121CB4EE940112FE
:10123300124E50C3EC24F6FCED34FFFDECFAEDFB4B
:101243007403120BA57F08020C4CC3EF9400A2D2C7
:1012530065D03322E824FFFAE934FFFB8A828B83CB
:101263002212126A18EB22E088828983F022851009
:1012730082851183121D9F7A0A7B0022C3E09AA301
:10128300E09BA2D265D03322C3E098A3E099A2D217
:1012930065D03322E0121D2922851082851183C374
:1012A300A3E09400A2D265D0332224308C828D83B4
:1012B300F0A3AC82AD832274308C828D83F0A3AC17
:1012C30082AD83741322E024FFF0A3E034FFF02205
:1012D300A3E03400F9851082851183E8F0A3E9F0D7
:1012E300228510828511831212EE22E8F0A3E9F021
:1012F300851082851183E02274F0120BE674B0121C
:101303000B8F851082851183121DAD7418120BDAB1
:10131300ECF0A3EDF0740F120BDAE4F0A380227467
:1013230060120BDA121CF77404120BDAE0F974186A
:10133300120BDA121297120BE4740F120BDA121C4F
:10134300BEF0121D64FA121DE6120BDAEAF07425E0
:101353006A6010E070C9740F120BDA121CF7745034
:10136300021245121D64642570198510828511834C
:10137300E02401081212D37460120BDA121CF779FD
:101383002580AB740E120BDAE4F0740D120BDAE461
:10139300F0740C120BDAE4F07405120BDAE4F07457
:1013A3001E120BDAA882A9837402120BDA800E7460
:1013B30005120BDAE060268510828511831212EA8A
:1013C300121CEE121D51FA120D79000520B21323DF
:1013D300F2132BE0132DE91330F613FA13740512ED
:1013E3000BDAEAF080D1740C120BDAE00480F474A7
:1013F3000D80F5740E80F1121D51642A705B7462C6
:10140300120BDA121D5CFB8A828B83E0FCA3E0FDE6
:10141300740A120BDAECF0A3EDF0EA24020A0AEBE9
:101423003400FB7462120BDA121DA5740A120BDA74
:101433001212A2501F740A120BDA121CF7C3E49A99
:10144300FAE49BFB740A120BDA121DAD740C120B37
:10145300DAE004F01212D8804C740A120BDAE4F0CA
:10146300A3802F740A120BDA121D07E875F00AA481
:10147300F8AAF075F00AE9A42AF9E82508F8E9348E
:1014830000F974D028F874FF39F9740A120BDA12D0
:101493001E0B121DC7F5838882E0F50874D025085A
:1014A300C3940A40BE740C120BDAE06007740E1288
:1014B3000BDAE4F0121D64642E60030215478510F5
:1014C30082851183E0240108A3E03400F91212E4B9
:1014D300121298E0642A702C7462120BDA121D6ADD
:1014E300F8A3E0F988828983E0FEA3E0FFE8240201
:1014F3000808E93400F97462120BDA121D44121E53
:101503000BF080447E007F00121D64F50874D02523
:1015130008C3940A5032EE75F00AA4FEAAF075F0DF
:101523000AEFA42AFFEE2508F8EF3400F974D02857
:10153300FE74FF39FF851082851183E02401F812C0
:1015430012D380C47EFF7FFF7A00851082851183CA
:10155300121CE9851082851183E0FBA3E0F5838BE0
:1015630082E0120D7900034C75156876156C7515BC
:1015730079150A1212D8121D64FB121DE6120BDA3A
:10158300EBF0120D79001000601B451C1A47F71988
:10159300581B17631C1664C817651C1A66151A674F
:1015A300F71969C8176EBC156F0917701B177355A8
:1015B30016751B17781B176C1B7462120BDA121D3E
:1015C30092120BDA1212DEEA6035740F120BDAE0B4
:1015D300FCA3E0FD3395E0FE7406120BDA121D73D3
:1015E300ECF0A3EDF0A3EEF0A3F07462120BDA12A9
:1015F3001D7A120BDA121D44E8F0A3E902134474B6
:101603000F120BDA121D077406120BDA121D5CF5AA
:10161300838A82E8F0A3E980D07462120BDA121D88
:1016230073E0C0E0741E120BDAD0E0F07462120BA8
:10163300DA121D7A120BDA121D441212DE741F1213
:101643000BDAA882A9837412120BDAE8F0A3E90279
:101653001B837462120BDA121D92120BDA1212DE62
:101663007406120BDA121D92120BDAE02402FAA3AB
:10167300E03400FB7462120BDA121DA57402120B24
:10168300DA1212DEE87001E9700C7402120BDA74DC
:10169300B3F0A37402F012124D50047E107F27742E
:1016A30008120BDAE4F0A380087408120BDA121C98
:1016B300BEF07402120BDA121D0788828983A3AA73
:1016C30082AB837402120BDA121DAD88828983E028
:1016D300600A7408120BDA121D0B40CD7402120B50
:1016E300DA121CD77412120BDA1212DE7408120B00
:1016F300DA121D31F97412120BDAE028F8A3E0397B
:10170300F9740202164B740D120BDAE0600AEE70E4
:1017130001EF70047E017F007462120BDA121D92D6
:10172300120BDA121DF3120BDAE06470703C7406CC
:10173300120BDA121D88120BDA121DCE120BDAE02D
:101743002402121D3B120BDA121D441212DE900208
:10175300DE7808120AA9741A120BDA7808120AB88A
:101763007405120BDAE4F0021865EA6021740612BC
:101773000BDA1212977808120AA97414120BDA788A
:1017830008120AB87406120BDAE0240480147406F3
:10179300120BDA121D88120BDA121DCE120BDAE0CD
:1017A3002402121D3B120BDA121D44121DF3120BFD
:1017B300DAE0646F70059002E28096E06475708EE3
:1017C3009002E6808C7462120BDA121D92120BDA0D
:1017D3001212DEEA60187406120BDA121297780CF2
:1017E300120AA97406120BDAE02404F8801F7406A7
:1017F300120BDA121D6AF50CA3E0F50D3395E0F533
:101803000EF50F7406120BDAE024020808121D3CD1
:10181300120BDA121DDB120BDA780C120AB89002E3
:101823009D7808120AA97808790C12024450217491
:1018330005120BDA742DF07414120BDA7808120AFD
:10184300A97808120A987414120BDA7808120AB8E5
:101853009002E67808120AA9741A120BDA780812B1
:101863000AB8744F120BDAA882A9837402120BDA36
:101873001212DE7412120BDA121DDE120BDAC082A0
:10188300C08390029D7808120AA9D083D082780879
:1018930012022F60097411120BDA7401800674119D
:1018A300120BDAE4F0EE7001EF7006E07003021938
:1018B3006C7402120BDA121D1B120BDA121DDE12EC
:1018C3000BDA780C120AA9741A120BDA7808120AC6
:1018D300A9780C7908120A25E50824A2F582E509FE
:1018E3003402F583E0C0E07402120BDA121297D0CF
:1018F300E0F07414120BDA780C120AA9741A120BA2
:10190300DA7808120AA9780C7908120A25741412D5
:101913000BDA780C120AB87414120BDAC082C08383
:1019230090029D7808120AA9D083D0827808120207
:101933002F60030218B412124D502E740E120BDADC
:10194300E060267405120BDAE06004D2F08002C274
:10195300F0740A120BDA121CC7800E7402120BDA2F
:10196300121DBF120BDA121D217402120BDA121CA4
:10197300D7744F120BDAC082C0837402120BDA12CF
:101983001CF7D083D082E582C39AFAE5839BFBC31D
:10199300EA9EEB121D1440C3740D120BDAE07003C0
:1019A300021B847411120BDAE07003021B847404AB
:1019B300120BDAE064786005E06458701E12126A54
:1019C300E824FF18E934FFF97402120BDA121DBF81
:1019D300120BDA1212977430021B83E0646F6003F8
:1019E300021B847402120BDA121D57643070030257
:1019F3001B8480D47408120BDA7401F0A3E4F0742E
:101A030004120BDAE024FEF0EE7001EF70147E0195
:101A130080177404120BDAE4F07408120BDAE4F0A2
:101A2300A3F012124D50047E067F007462120BDA8B
:101A3300121D92120BDA1212DE7406120BDA121254
:101A430097780C120AA97406120BDAE02404121D0B
:101A53003B120BDA121DDB120BDA780C120AB89068
:101A6300029D7808120AA9780C79081204375022CB
:101A73007405120BDA742DF07414120BDA78081251
:101A83000AA9E50BB2E7F50B7414120BDA78081206
:101A93000AB8740A120BDA121D07741E120BDAE568
:101AA3008228F8E58339F97402120BDA1212DE7414
:101AB3000D120BDAE0F5087808120D3D7409120BCC
:101AC300DAE0F5087808120D3D7404120BDA120DF2
:101AD3004C8E088F097808120D39740A120BDAE05C
:101AE300F9741A120BDA7808120AA9AA08AB09AC1E
:101AF3000AAD0B1202237406120BA57412120BDA31
:101B0300121DAD740E120BDAE060767405120BDA57
:101B1300E06004D2F08002C2F0740A120BDA121CE5
:101B2300C77412120BDAC082C0837402120BDA126A
:101B33001D07D083D082E0C398F8A3E099F9C3E8E6
:101B43009EE9121D14503A7402120BDA121D1B1275
:101B53000BDA121DBF120BDA121D2180C48510820D
:101B6300851183121CE01212D77402120BDA74C2AD
:101B7300F0A37402F07412120BDA74C5F0A37402AA
:101B8300F07412120BDAC082C0837402120BDA12E1
:101B93001D07D083D082E0C398FEA3E099FF740AA7
:101BA300120BDA121D0B500A7408120BDAE4F0A3BD
:101BB30080327405120BDAE06004D2F08002C2F0C6
:101BC300740A120BDAE0C39EF8A3E09FF9A2F0E4D3
:101BD30092E0FAE8C39AF8E99400F97408120BDA70
:101BE300E8F0A3E9F0740C120BDAE0702B8019749F
:101BF30060120BDA121CFD120BDA121297120BE4AD
:101C0300740F120BDA121E017408120BDA121DB3D1
:101C1300120BDA1212A250D77405120BDAE06050DD
:101C23007460120BDA121CF77405120BDAE0F97404
:101C330018120BDA121297120BE4802C7460120B39
:101C4300DA121CF77402120BDA121D6AF9741812F5
:101C53000BDA121297120BE47402120BDA121CE95C
:101C63007402120BDA1212DE740F120BDA121E0157
:101C7300121CB412124F50C4740C120BDAE070032E
:101C83000213457408120BDA121DB3120BDA121287
:101C9300A250030213457460120BDA121CFD120BDF
:101CA300DA121297120BE4740F120BDA121E018070
:101CB300D2EE24FF1EEF34FFFFC322E02401F0A382
:101CC300E0340022A2F0E492E0F8E0C398FEA3E03F
:101CD3009400FF22121CDB22121CE0F922E024FFF5
:101CE300F8A3E034FF22E0121CEE222401F8A3E063
:101CF3003400F922E0FAA3E0FB22E0FAA3E0FB7947
:101D030020741822121D9F22C3E09EA3E0121D140B
:101D1300229FA2D265D03322121CDB740222121D31
:101D2300287430F022E0F8A3E0F583888222121DA4
:101D33009FC3E498F8E49922F8A3E03400F97462AD
:101D430022121D4822E0FAA3E0F5838A822285103D
:101D530082851183121D48E022121D48E0FAA3E098
:101D630022851082851183121D6E22121D28E02206
:101D7300121D6E121D2922121D6E2402F8A3E034D7
:101D830000F9746222121D98E8FAE9FB7414221216
:101D93001D98740622121D28121D9F22E0F8A3E04D
:101DA300F922E0FCA3E0F5838C82EAF0A3EBF022B6
:101DB300E024FFF0A3E034FFF0740822E8F0A3E985
:101DC300F07402221212F2F8A3E022EAF0A3EBF07D
:101DD300A3E4F0A3F0740622121D48E8F0A3E9F08F
:101DE300741422851082851183E0240108121E19C0
:101DF300E8F0A3E9F0740422851082851183E024BE
:101E030001F0A3E03400F0221212EE2401F8121EB6
:101E130019E8F0A3E922A3E03400F98510828511C3
:101E2300832274F7120BE67E097F021201E112018D
:101E3300A57901EEFAEFFB1201D58E828F83E0C202
:101E4300E7F08E828F83E0640570538E828F83E088
:101E5300F97A0A7B021201D58E828F83A3E0A2E571
:101E63005004D2F08002C2F0A2F0E492E090029912
:101E7300F0780D790288828983A3E0A2E740030208
:101E83001F498E828F83A3A3A3E0FA900200E06A26
:101E93006003021F497401900201F0021F498E8200
:101EA3008F83E024F5900296F08E828F83E0F97A97
:101EB3000A7B021201D58E828F83A3E0A2E5500430
:101EC300D2F08002C2F0A2F0E492E0900299F08E88
:101ED300828F83A3A3A3A3A3A3A3A3E0F8A3E0F9FF
:101EE300900292E8F0A3E9F09002977413F0A374C0
:101EF30002F0900296E0F83395E0F9900297E0281B
:101F0300F8A3E039F988828983E090029AF0888205
:101F13008983A3E0A2E75022900291E0FA8E828F98
:101F230083A3A3A3E06A60128E828F83A3E054DFAE
:101F330064417006740190029BF08E828F83A3A389
:101F4300A3E0900291F01201AB1201E77F01020CB2
:101F53004C74F4120BE6EAFEEBFF1201B7E96401DD
:101F63007004790180731201AB900207EEF0A3EFC6
:101F7300F09002977400F0A37400F07401900202D1
:101F8300F090029D7808120AA99002037808120AB9
:101F9300B8900207E0F8A3E0F5838882A3A3A3A384
:101FA300E0F91201C3900207E0F8A3E0F583888209
:101FB300E0FAA3E0FB1201C9900207E0F8A3E0F501
:101FC300838882A3A3E0FAA3E0FB1201CF7A6F7B9D
:101FD300011201ED1201A579007F04020C4CC082AD
:101FE300C08390029BE0F9D083D0820200FB74F29D
:101FF300120BE68A088B09890AECFEEDFF1201AB8E
:10200300900296E0F83395E0F9850A0C750D00C34C
:10201300E8950CE9950DA2D265D033500D90029648
:10202300E0F50C3395E0F50D800C850A827583008D
:1020330085820C85830D780C120D39900297E0FC94
:10204300A3E0FDAA08AB091202117402120BA5EE5C
:1020530064007003EF640060241201BDE9F5089089
:10206300029AE0F83395E0F9750900E8C39508F89A
:10207300E99509F98E828F83E8F0A3E9F074009063
:10208300029BF01201A5900296E0F83395E0F985E2
:102093000A08750900C3E89508E99509A2D265D035
:1020A300335007900296E0F98002A90A7F06020CDA
:1020B3004CC082C0837401900202F01201DBD08312
:1020C300D0820200FBC082C083906189E04460F04B
:1020D30074099061FAF074159061B2F07400906124
:1020E300AEF01201F31201E77900D083D08202002F
:1020F300FBC082C0839002A1E0F9D083D0820200AA
:10210300FBC082C08375F005E9A424D490618FF0ED
:10211300D083D0820200FBC082C083EA906174F056
:10212300EB906175F0D083D0820200FBC082C08344
:10213300EA906172F0EB906173F0D083D082020079
:10214300FBC082C0838011E5D98A828B83F08A82A7
:102153008B83A3AA82AB8319E9C3940150E9D0838B
:10216300D0820200FB75E1EC75E1E30200FBC08263
:10217300C0839061A3E0C2E6F0539AFED083D0827D
:102183000200FBC082C0839061A3E0D2E6F0439AD1
:1021930001D083D0820200FBC082C083A2AFE4924D
:1021A300E0FCC2AF900289EAF0A3EBF0ECA2E0926C
:1021B300AFD083D0820200FB0200FBC082C08374D5
:1021C30080120B8F12018712017BE960FA7C007D7C
:1021D300007980851082851183AA82AB83120181E5
:1021E300E9F87900C3E89401E99400A2D265D033F9
:1021F30040D57400C0E0851082851183E58228F5FF
:1022030082E58339F583D0E0F0851082851183AAB6
:1022130082AB8312020B851082851183AA82AB8362
:1022230012021D80A21201B112019F7A00790012DD
:1022330001FF1201B7E96401700312019990028D45
:102243007422F0A37420F0742690028FF07401902E
:102253000290F090028B7430F0A37426F07A8B7B9B
:1022630002120175E9640170031201991201F90266
:1022730000FB74F7120BE6E9FA7B00120DD87F011D
:10228300020C4C74F6120BE674FE120B8F740C12D4
:102293000BDAA882A983851082851183E8F0A3E96C
:1022A300F085108285118385820885830978081259
:1022B3000D397508007509007808120D397C177DF2
:1022C300021202297404120BA57402120BA57F02D9
:1022D300020C4C748055C6FA53BEFBE59DA2E55033
:1022E300FAE59DA2E240F400740169700774494A5B
:1022F300F5C68005E970028AC6E5C6FAE59EFBEAE3
:102303006B70F943BE040200FBE9FAE59EA2E640C6
:10231300047901801CEA700553C67F800874016A42
:10232300700343C680E5C6FBE59EFCEB6C70F97950
:10233300000200FB74F6120BE6740A120BDAE0FEDD
:10234300A3E0FFEAF8EBF980188C828D83E08882A2
:102353008983F0A3A882A9838C828D83A3AC82ADE9
:10236300838E088F0974FF25081E74FF3509FFE566
:10237300087002E50970D27F02020C4C89C1A2E900
:1023830050FCC2E90200FB74F7120BE6EAFEEBFF16
:1023930080128E828F83E0F91202058E828F83A3CF
:1023A300AE82AF838E828F83E070E77F01020C4C95
:1023B300C082C0837900120193E960107901120190
:1023C3008D7900120193E9600312019979001201DA
:1023D3008DD083D0820200FB43F30CE5F353F1FE6F
:1023E30053FF3FE5FF7586C075C50975C23BEA49D2
:1023F30045C4F5C40200FB53F4F2E5F443FE0DE5D6
:10240300FE53F5FE43FF0143900DE590D2A0020079
:0D241300FBD2AF0200FBC2AF0200FB80FE57
:04000005000000E314
:00000001FF
