:020000040000FA
:030000000200E318
:10008300020E4100000080FB120113B900030200BD
:10009300CDE4900200780579028002F0A3D8FCD960
:1000A300FA900304AA82AB839001167867790180E2
:1000B30015E493A3AC82AD838A828B83F0A3AA82D7
:1000C300AB838C828D83D8E9D9E77582FA75832255
:1000D30074001200F575828675830074001200F5B2
:1000E30075D0007581BF751000751102759F0002F0
:1000F300008BC09FF59FE473D09F22D083D082C032
:100103009FE493C0E0740193C0E0740293F59F22CF
:10011300790122FF00000000000000000000000041
:1001230000000025640D0A0053656E643A25730AC6
:100133000030313233343536373839414243444560
:100143004600286E756C6C20706F696E7465722939
:10015300003F3F3F000000803FF9021550B743BA0C
:10016300510000204100E7DB2E0000A040100000FA
:1001730000080000000A0000001200FE841E0012A6
:1001830000FE291F001200FE8A1F001200FEB92084
:10019300001200FE4621001200FEDE21001200FEC6
:1001A300D326001200FE0927001200FE3E2700128C
:1001B30000FEF625001200FE1026001200FE312676
:1001C300001200FE5226001200FE3427001200FE29
:1001D3003927001200FE6E25001200FE962500123C
:1001E30000FEC925001200FE9023001200FEBC236E
:1001F300001200FED223001200FEE723001200FECD
:10020300FC23001200FE2824001200FE4C240012DE
:1002130000FE5D24001200FE6624001200FE6F241F
:10022300001200FE8424001200FE9924001200FE36
:10023300B924001200FECC24001200FEF2210012A9
:1002430000FE4323001200FE7226001200FE8326E6
:10025300001200FECF24001200FEF824001200FE5C
:10026300820E001200FE5A1300E066701008A3E02D
:1002730066700A08A3E066700408A3E06622C3E779
:10028300960809E7960809E7960809E796A2D26552
:10029300D03322080808E630E711120AD21202AE60
:1002A300080808C64480C618181822181818E979CF
:1002B3009EC608CAC608CBC608CCC6C370207996AA
:1002C300CACBCC7019798ECBCC70137986CC700ED7
:1002D300F9802ACA33CACB33CBCC33CC331930E7BA
:1002E300F2CCCBCA3350147004EA30E00DE4CA3ABE
:1002F300CACB3BCBCC3CCC500209C3E913C6CC18C8
:100303002313C6CB18C6CA18C6F92212034E20F00F
:100313001430E72B74FFFCFBFA747F8022E4FCFBB0
:10032300FA7480801AB48008BC00F2BB00EF800F1F
:1003330050EBF9E4C39AFAE49BFBE49CFCE499C612
:10034300CC18C6CB18C6CA18C6F922E4C9C608CA4F
:10035300C608CBC6D3330308CCC63392F0C3947F0D
:10036300402E94184019C9B90704CACBCC22502592
:10037300C309CA33CACB33CBCC33CC33D9F422F43D
:10038300600DC9CCC313CB13CBCA13CAD9F6CC2285
:10039300E4FCFBFA2214FCFBFA22E6C333184618EA
:1003A30046184622E7C33319471947194722181835
:1003B30018E6084608700AE608C3337005E633F406
:1003C300220822191919E7094709700AE709C333F3
:1003D3007005E733F4220922E6084608C3134608EA
:1003E300336002E633F422E7094709C313470933AD
:1003F3006002E733F4221203DB60251203EA602074
:1004030012039D70030203A7080808E7667010181B
:1004130019E766700A1819E76670041819E7662267
:10042300F4221203DB601C1203EA601712039D70AF
:10043300071203A77001D322C0D01203A77006D0FE
:10044300D0B322C32233D0D0501430E0F6C3E796A2
:100453000809E7960809E7960809E796B32220E01A
:10046300D5E6970809E6970809E6970809E697B3DA
:10047300221203DB601B1203EA601612039D70074E
:100483001203A7600CB322C0D01203A77005D0D00B
:1004930022C32233D0D0501330E0EBC3E7960809D0
:1004A300E7960809E7960809E7962220E0E4E6972D
:1004B3000809E6970809E6970809E6972200120358
:1004C300DB604F1203EA6012E7548066F61203B151
:1004D30070111203A7703B090909F4F618F618F610
:1004E30018F6221203C6701512039D08080860EA65
:1004F300E6447FF618768018E4F618F62212039D78
:1005030060161203A77012E4F608F608F608E6541C
:1005130080F609090918181822EAC0E0EBC0E0ECDC
:10052300C0E0EDC0E0E687F0A4FBACF008E687F09E
:10053300A42CFCE435F0FA1809E687F0A42C4B60F0
:10054300027401CA35F0FCE433FB09E687F0D2F705
:10055300A42CCB35F0FC1908E687F0A42BCC35F09E
:10056300FBE433FD0819E687F0D2E7A42C4ACB3528
:10057300F0CD3400FC09E687F0D2E7A42DCC35F0AA
:10058300FDE433FA0918E687F0D2F7A42CCD35F051
:10059300CA3400FC08E687F0D2E7D2F7A42ACC35A8
:1005A300F07A7E20E70B0ACB33CBCD33CDCC33CCE3
:1005B30033CB3350147004ED30E00ED2F1E4CD3D73
:1005C300CDCC3CCC3B5005DA05C2F1EB547FC633AE
:1005D30008E63392F0FBE73309E733C39A502D2B38
:1005E30070190C0D4C4D70151806E608C333700DC9
:1005F30020F10AA2F013F6E418800B4024E4F6304D
:10060300F002768018F618F618F68024D33B1450BF
:100613001074FFA2F013F6187680E418F618F6802B
:100623000FA2F013F618E63303F618ECF618EDF6FE
:10063300D0E0FDD0E0FCD0E0FBD0E0FA221203EAE8
:1006430060461203DB603DE9687008F618F618F699
:1006530018F622748067F712067409090974806713
:10066300F7221203DB601D1203EA700519191980C2
:100673001A1203B1701F1203C6C37003E66733195E
:10068300191940071818182208080874FFF618F6F5
:1006930018F618F6221203C660171203A7702192E8
:1006A300F012039D7019501720F014080808090967
:1006B30009E7F61819E7F61819E7F61819E7F62205
:1006C30012039D60E6E869701F0808E62480F608B7
:1006D300E436F618547FB47F0CE654806007F6E4E2
:1006E30018F618F622181822E9C6CC08C6CD08C693
:1006F300CE08C6CFC0E0E8C0E0EAC0E0EBC0E00946
:10070300E9F809E7FA09E7FBE6F918E6F8C3EC9814
:10071300ED99EE9AEBC2E7F5F0EFC2E795F0500ED4
:10072300600CEBCFFBEACEFAE9CDF9E8CCF8EAA20C
:10073300E7D2E7FAEB33FB13F5F0EEA2E7D2E7FEDD
:10074300EF33FFC5F013A2E730E601B313C5F0C3DF
:10075300C0E0C0F07F00C39BFB605B9418600C405B
:100763001AD0E023F9D0E0F80208438AF0E94860A0
:1007730003D2F0E4AFF0FAF9F8803BEB30E40D89F3
:10078300F0EA6003D2F0E4AFF0F9CAF8EB30E30D1E
:1007930088F0EF6002D2F0AFF0E4CAC9F8EB540777
:1007A3006014FBC3EA13FAE913F9E813F8EF1350E3
:1007B30002D2E0FFDBEDD0E0C0E030E739C3E49FD5
:1007C300FFF5F0EC98FC42F0ED99FD42F0EE9AFE55
:1007D30042F0D0E0F9D0E0F8E5F0607AE923F9EEF1
:1007E30020E742D8028067C3EF33FFEC33FCED33DD
:1007F300FDEE33FE80EAEC28FCED39FDEE3AFED047
:10080300E023F9D0E0F84002801BC3EE13FEED13A2
:10081300FDEC13FCEF135002D2E0FF08B800067F93
:100823007F74FF802EEF3350178CF020F00260109E
:100833000CBC000C0DBD00080EBE000408E860DF10
:10084300E933E813FFEE2313FE4F4D4C8008E954C0
:1008530080FFE4FEFDFCEE33EF33F47004FCFD7E19
:1008630080D0E0FBD0E0FAD0E0F8D0E0CFC618CEDD
:10087300C618CDC618CCC6F9221203DB70041818AB
:1008830018221203EA700D74FFF61819F61819F6F8
:100893001819F622E7548066F612039D700F1203AF
:1008A300A770F014F608F608F608F680D11203A72D
:1008B300700CF608F608768008E6447F80EC120395
:1008C300C9700C1203B460BFE65480F6E480BB1217
:1008D30003B4700519191980A5E869700C763F18DF
:1008E300768018F618F6E8F922E6CDC0E018ECC0D9
:1008F300E0E633CD33CDD313F6E719FCE71919330B
:10090300CC33C3947F400ECD9D502408E65480F62B
:10091300E418F6800FF4043D14501408E6447FF6FF
:10092300187680E418F618F6D0E0FCD0E0FD22CC6F
:10093300D313CCFD18E4C6CBC0E018E4C6CAC0E0AC
:100943000808ED08C633E613F618E433C675F0035A
:10095300C3CA97CA09CB97CB199C40047D08802E44
:10096300BD0003020A2516B6FF050606081618C3BE
:10097300CA33CACB33CB33CA27CA09CB37CB193CCB
:10098300C37D08803E187D0820E75CC633C6CA33A2
:10099300CACB33CB33DDF1D5F0EB30E77BCA97CA53
:1009A30009CB974ACB199C406F4B7025E620E02179
:1009B3008066187D08C3CA97CA09CB97CB199CD305
:1009C300C633C6CA33CACB33CB3350C9DDE7D5F000
:1009D300E1D3E4C636C608C636C608C636C608C658
:1009E30036C61818188031C3CA97CA09CB97CB19D2
:1009F3009CB34097C633C6CA33CACB33CB33DD343B
:100A0300D5F02EC6A2E0C640C8CA27CA09CB3719FB
:100A13004A70BECB3CB480B90808E63308E63360BD
:100A23001F181818D0E0FAD0E0FBD0E0FCD0E0FDAE
:100A330022187D08CA27CA09CB37CB193CD380803B
:100A430013F618E4B67F11F618B6FF0EF618C604AF
:100A530070D20808768080CAF618F618F680C5E4C6
:100A6300CFC0E0E4CEC0E0E4CDC0E0E4CCC0E075AC
:100A7300F020C3E633F608E633F608E633F608E675
:100A830033F6181818EC33FCED33FDEE33FEEF3379
:100A9300FFC3EC9709ED9709EE9709EF9719191919
:100AA300400FFFEC97FC09ED97FD09EE97FE19192E
:100AB30006D5F0BEECF709EDF709EEF709EFF719E4
:100AC3001919D0E0FCD0E0FDD0E0FED0E0FF221801
:100AD3001818E4C396F608E496F608E496F608E4D4
:100AE30096F622E0F608A3E0F608A3E0F608A3E0F2
:100AF300F622E6F008A3E6F008A3E6F008A3E6F082
:100B030022CAC0E0E6F0A308DAFAD0E0FA22CAC0AB
:100B1300E0E0A3C582CCC582C583CDC583F0A3C560
:100B230082CCC582C583CDC583DAE6D0E0CA22C3B1
:100B3300E498F8E499F9120B738026C3E49AFAE473
:100B43009BFBE920E7E9120B73E498F8E499F92297
:100B5300C3E498F8E499F9120B73E498F8E499F96B
:100B6300C3E49AFAE49BFB22EB20E7CFE920E7E01A
:100B7300B90010BB0008E88AF084F8AAF022E4FB6D
:100B8300C8FA22EB70227B10C833C8C933C933506B
:100B930007C39AC3DBF280069A50012ADBEAC83303
:100BA300F4C8C933F4C9FA2275F008E4C833C8C9D4
:100BB30033C933C99AC99B5004C92AC93BD5F0EC40
:100BC300FBC833F4C8E4C9FA22600C08C6C313C6D1
:100BD30018C613C6D5E0F422700422600D18C6C3EC
:100BE30033C608C633C6D5E0F41822251010AF0863
:100BF300F510400215118008F51040021511D2AF0F
:100C030022C0D0251010AF08F5105002051180083E
:100C1300F51050020511D2AFD0D0222510F5821065
:100C2300AF08F510400215118008F51040021511A8
:100C3300D2AF851183222510F582E43511F5832285
:100C4300E4732510C582C0E0E51134FFC583C0E01D
:100C5300E510C3958224F8F8E4C5A885831185823D
:100C630010C5A8E8CEF0A3E520F0A37808E608F0C5
:100C7300A3DEFAEFF0A3E58124FAF8E608F0A3E691
:100C830008F0A3E608F0A30808E608F0A3E608F0D6
:100C9300A315811581D0E0FED0E0F81581158115EB
:100CA30081E8C0E0EEC0E022851183851082E0A3D5
:100CB300FEE0A3F5207808E0A3F608DFFAE0A3FF3F
:100CC300E0A3C0E0E0A3C0E0E0A3C0E0E0A3C0E095
:100CD300E0A3C0E0E4C5A8858210858311C5A8D030
:100CE30083D0820200FBC0D02510C582C0E0E5118D
:100CF30034FFC583C0E0E510C3958224F310AF0829
:100D03008583118582108008858311858210D2AF77
:100D1300C8F0A3E9F0A3EAF0A3EBF0A37908E7098D
:100D2300F0A3D8FAECF0A3EDF0A3EEF0A3EFF0A359
:100D3300D0E0F0A3D0E0F0A3D0E0F0A3E520F0A34F
:100D4300E5F0F0A322851183851082E0C0E0A3E0E3
:100D5300F9A3E0FAA3E0FBA37808E0F608A3DFFA1F
:100D6300E0FCA3E0FDA3E0FEA3E0FFA3E0C0E0A35B
:100D7300E0C0E0A3E0F5D0A3E0F520A3E0A3F5F005
:100D8300E4C5A8858311858210C5A8D082D083D0FD
:100D9300E0F8D0E032740280027401C0E0F404127F
:100DA3000C1ED0E0120B042274028000CCC0E0EDD4
:100DB300C0E0E510C39CCCAD1150011D10AF068CF3
:100DC300108D1180068C108D11D2AF120B11D0E053
:100DD300FDD0E0FC22D083D082CCC0E0E493A360BA
:100DE30006120E021470FAE493A36006120E211485
:100DF30070FAD0E0FCE493A3C0E0E493C0E022C027
:100E0300E0E493A3D39C5010E493A3C39C400AD083
:100E1300E0D0E0D0E0020DF5A3A3A3D0E022C0E030
:100E2300E493A36C7009D0E0D0E0D0E0020DF5A309
:100E3300A3D0E022EAF5C1A2E950FCC2E922C0E056
:100E430074F2120CE9A2AFE492E0FEC2AFE5E9A2AC
:100E5300E650229002FCE064007004A3E0640060AA
:100E63000E9002FCE0F8A3E0F5838882120C437530
:100E73009B0053E9BFEEA2E092AF7F01020D4874DD
:100E8300F0120C4574FD120BEE7402120C39E9F0EA
:100E93008A088B098C0A8D0B7415120C39E0FCA39C
:100EA300E0FD851082851183E4F0A3F0900346787A
:100EB3000C120AE67808790C1204255003020F601D
:100EC300900310780C120AE67808790C1203F96083
:100ED30003020FB47417120C39E07003020FF68586
:100EE3001082851183C082C0837413120C39121DC2
:100EF30066D083D0821212EA502C8510828511832A
:100F0300C3E094FCA3E094FFA2D265D033401774EE
:100F130002120C39E4121E26F97413120C39C3E0C1
:100F230098F0A3E099F07413120C39121328741873
:100F3300120C39E07003020FF37417120C39E40238
:100F43000FF590034A780C120AE67808790C120818
:100F53007C851082851183E0240A121E6390034E60
:100F6300780C120AE67808790C12042540D4900311
:100F730052780C120AE67808790C12042540030211
:100F83000ED7900352780C120AE67808790C1208EF
:100F93007C121E5A80D890034A780C120AE678080D
:100FA300790C1204C0851082851183E024F6121394
:100FB3002B900356780C120AE67808790C12047405
:100FC30040D4900346780C120AE67808790C120490
:100FD300744003020ED7900352780C120AE6780885
:100FE300790C1204C085108285118312132880D2D4
:100FF3007401F07402120C39E060077A007B00027E
:1010030010F41212FB506D121319120C39E0FEA3E7
:10101300E0FFEE7001EF70087418120C39E0600BFA
:10102300742E8C828D83F0A30CAD837A007B0080B9
:1010330009121319120C39121328EA24FF1AEB347C
:10104300FFFB8510828511831212DE500C7413127C
:101053000C39E07002A3E070D88510828511837487
:10106300FFC39EF874FF9FF91212EA50030211C3E3
:101073007A018089851082851183121D66C3E498E5
:10108300FAE499FB806B85080C85090D850A0E85AA
:101093000B0F780C12030EAE0CE50D3395E0F50E35
:1010A300F50F780C1202967808790C12064090031B
:1010B30052780C120AE67808790C1204C0EE121367
:1010C3000CEAF8EBF97401280AE439FBE87001E94A
:1010D300701F7413120C39E07002A3E070087418C7
:1010E300120C39E0600B742E8C828D83F0A30CAD4F
:1010F300837413120C391212DE508B90035A780C3E
:10110300120AE67808790C12042540030211C37E03
:1011130001EC24FFF8ED34FFF97415120C39E0F5F6
:1011230008A3E0F50988828983E0642E6010E02E2D
:10113300F0643A70077430F07E0180027E00E8FAB2
:10114300E9FBEA24FF18EB34FFF9C3E5089AE50944
:101153009B40D2EE7001E460677402120C39E060C8
:1011630036ECF8ED800A1212C9E824FF18E934FFBF
:10117300F9C3E50898E5099950181212B6E0642EF0
:1011830070E4E824FEF582E934FFF5831212C3F913
:1011930080D7121E5A801E8C828D83A3AC82AD83AE
:1011A300ECF8ED80061212B61212C3F9C3E50898E3
:1011B300E5099940F07415120C391212F67431F0E6
:1011C3007417120C39E07005801A1CAD83EC24FFF0
:1011D300F582ED34FFF583E0643060EEE0642E7059
:1011E300031CAD837402120C39E0700302129E12C9
:1011F300130EA3A9831212FB5018742D8C828D83B6
:10120300F00CE9FD851082851183121D90121336AF
:10121300800A742B8C828D83F00CE9FD7E007F00A5
:10122300EC240AFCED3400FDEE24010EEF3400FF44
:101233001212D0120B6BEA12130C1212D0120B6B98
:101243001213437002A3E070DFC3EE94021212ADD7
:1012530040D6EEFAEFFBC3E49EF8E49FF9EC28F5E1
:1012630082ED39F583E0C0E0C3E49AF8E49BF9EC3E
:1012730028F8ED39F9EE28F8EF39F974F528F582F5
:1012830074FF39F583D0E0F0121D13EE94011212AE
:10129300AD50C3EC24F6FCED34FFFDECFAEDFB742A
:1012A30003120C047F08020CABC3EF9400A2D265B7
:1012B300D03322E824FFFAE934FFFB8A828B8322AE
:1012C3001212C918EB22E088828983F022851082EA
:1012D300851183121DFE7A0A7B0022C3E09AA3E0E4
:1012E3009BA2D265D03322C3E098A3E099A2D26532
:1012F300D03322E0121D8822851082851183C3A377
:10130300E09400A2D265D0332224308C828D83F006
:10131300A3AC82AD832274308C828D83F0A3AC8224
:10132300AD83741322E024FFF0A3E034FFF022A383
:10133300E03400F9851082851183E8F0A3E9F022F7
:1013430085108285118312134D22E8F0A3E9F085FD
:101353001082851183E02274F0120C4574B0120BD5
:10136300EE851082851183121E0C7418120C39EC51
:10137300F0A3EDF0740F120C39E4F0A38022746033
:10138300120C39121D567404120C39E0F974181238
:101393000C391212F6120C43740F120C39121D1D64
:1013A300F0121DC3FA121E45120C39EAF074256AB5
:1013B3006010E070C9740F120C39121D567450027C
:1013C30012A4121DC364257019851082851183E050
:1013D3002401081213327460120C39121D56792538
:1013E30080AB740E120C39E4F0740D120C39E4F076
:1013F300740C120C39E4F07405120C39E4F0741E09
:10140300120C39A882A9837402120C39800E740558
:10141300120C39E06026851082851183121349125C
:101423001D4D121DB0FA120DD800052011142351C1
:10143300142B3F142D481430551459147405120CF1
:1014430039EAF080D1740C120C39E00480F4740D85
:1014530080F5740E80F1121DB0642A705B74621201
:101463000C39121DBBFB8A828B83E0FCA3E0FD7465
:101473000A120C39ECF0A3EDF0EA24020A0AEB3469
:1014830000FB7462120C39121E04740A120C391216
:101493001301501F740A120C39121D56C3E49AFA31
:1014A300E49BFB740A120C39121E0C740C120C39D7
:1014B300E004F0121337804C740A120C39E4F0A3E1
:1014C300802F740A120C39121D66E875F00AA4F80D
:1014D300AAF075F00AE9A42AF9E82508F8E9340026
:1014E300F974D028F874FF39F9740A120C39121EF2
:1014F3006A121E26F5838882E0F50874D02508C396
:10150300940A40BE740C120C39E06007740E120C7E
:1015130039E4F0121DC3642E60030215A685108200
:10152300851183E0240108A3E03400F91213431268
:1015330012F7E0642A702C7462120C39121DC9F878
:10154300A3E0F988828983E0FEA3E0FFE824020890
:1015530008E93400F97462120C39121DA3121E6AD1
:10156300F080447E007F00121DC3F50874D0250867
:10157300C3940A5032EE75F00AA4FEAAF075F00A7D
:10158300EFA42AFFEE2508F8EF3400F974D028FE03
:1015930074FF39FF851082851183E02401F812134B
:1015A3003280C47EFF7FFF7A00851082851183120B
:1015B3001D48851082851183E0FBA3E0F5838B82B0
:1015C300E0120DD800034CD41568D5156CD415D88A
:1015D300150A121337121DC3FB121E45120C39EBE9
:1015E300F0120DD8001000BF1B457B1A47561A583E
:1015F3007A17637B16642718657B1A66741A675615
:101603001A6927186E1B166F6817707A1773B4164A
:10161300757A17787A17CB1B7462120C39121DF185
:10162300120C3912133DEA6035740F120C39E0FCC9
:10163300A3E0FD3395E0FE7406120C39121DD2ECC3
:10164300F0A3EDF0A3EEF0A3F07462120C39121DB7
:10165300D9120C39121DA3E8F0A3E90213A3740FE6
:10166300120C39121D667406120C39121DBBF58358
:101673008A82E8F0A3E980D07462120C39121DD279
:10168300E0C0E0741E120C39D0E0F07462120C3921
:10169300121DD9120C39121DA312133D741F120C03
:1016A30039A882A9837412120C39E8F0A3E9021B4A
:1016B300E27462120C39121DF1120C3912133D74CB
:1016C30006120C39121DF1120C39E02402FAA3E0C0
:1016D3003400FB7462120C39121E047402120C39AA
:1016E30012133DE87001E9700C7402120C39743363
:1016F300F0A37403F01212AC50047E107F27740819
:10170300120C39E4F0A380087408120C39121D1D61
:10171300F07402120C39121D6688828983A3AA828F
:10172300AB837402120C39121E0C88828983E06029
:101733000A7408120C39121D6A40CD7402120C3956
:10174300121D367412120C3912133D7408120C391F
:10175300121D90F97412120C39E028F8A3E039F93C
:1017630074020216AA740D120C39E0600AEE7001BD
:10177300EF70047E017F007462120C39121DF112A6
:101783000C39121E52120C39E06470703C7406124C
:101793000C39121DE7120C39121E2D120C39E024DC
:1017A30002121D9A120C39121DA312133D90035EEF
:1017B3007808120AE6741A120C397808120AF574BA
:1017C30005120C39E4F00218C4EA60217406120C05
:1017D300391212F67808120AE67414120C397808D2
:1017E300120AF57406120C39E024048014740612EC
:1017F3000C39121DE7120C39121E2D120C39E0247C
:1018030002121D9A120C39121DA3121E52120C3908
:10181300E0646F70059003628096E06475708E904B
:101823000366808C7462120C39121DF1120C39128A
:10183300133DEA60187406120C391212F6780C1272
:101843000AE67406120C39E02404F8801F740612A9
:101853000C39121DC9F50CA3E0F50D3395E0F50E17
:10186300F50F7406120C39E024020808121D9B12AE
:101873000C39121E3A120C39780C120AF590031027
:101883007808120AE67808790C120281502174054F
:10189300120C39742DF07414120C397808120AE6FC
:1018A3007808120AD57414120C397808120AF590C4
:1018B30003667808120AE6741A120C397808120AB9
:1018C300F5744F120C39A882A9837402120C3912D1
:1018D300133D7412120C39121E3D120C39C082C012
:1018E300839003107808120AE6D083D08278081216
:1018F300026C60097411120C3974018006741112A0
:101903000C39E4F0EE7001EF7006E070030219CBBE
:101913007402120C39121D7A120C39121E3D120C6C
:1019230039780C120AE6741A120C397808120AE68E
:10193300780C7908120A62E5082422F582E5093455
:1019430003F583E0C0E07402120C391212F6D0E002
:10195300F07414120C39780C120AE6741A120C394A
:101963007808120AE6780C7908120A627414120CC9
:1019730039780C120AF57414120C39C082C08390A2
:1019830003107808120AE6D083D082780812026C1A
:1019930060030219131212AC502E740E120C39E0AC
:1019A30060267405120C39E06004D2F08002C2F0A4
:1019B300740A120C39121D26800E7402120C39128D
:1019C3001E1E120C39121D807402120C39121D36A0
:1019D300744F120C39C082C0837402120C39121D69
:1019E30056D083D082E582C39AFAE5839BFBC3EA90
:1019F3009EEB121D7340C3740D120C39E070030289
:101A03001BE37411120C39E07003021BE37404121C
:101A13000C39E064786005E06458701E1212C9E85E
:101A230024FF18E934FFF97402120C39121E1E1236
:101A33000C391212F67430021BE2E0646F60030289
:101A43001BE37402120C39121DB664307003021BBF
:101A5300E380D47408120C397401F0A3E4F0740425
:101A6300120C39E024FEF0EE7001EF70147E018059
:101A7300177404120C39E4F07408120C39E4F0A35F
:101A8300F01212AC50047E067F007462120C3912FD
:101A93001DF1120C3912133D7406120C391212F691
:101AA300780C120AE67406120C39E02404121D9A0B
:101AB300120C39121E3A120C39780C120AF59003E3
:101AC300107808120AE6780C79081204745022740C
:101AD30005120C39742DF07414120C397808120A9B
:101AE300E6E50BB2E7F50B7414120C397808120A09
:101AF300F5740A120C39121D66741E120C39E58234
:101B030028F8E58339F97402120C3912133D740D68
:101B1300120C39E0F5087808120D9C7409120C397F
:101B2300E0F5087808120D9C7404120C39120DAB01
:101B33008E088F097808120D98740A120C39E0F98F
:101B4300741A120C397808120AE6AA08AB09AC0A0F
:101B5300AD0B1202607406120C047412120C3912CB
:101B63001E0C740E120C39E060767405120C39E009
:101B73006004D2F08002C2F0740A120C39121D26DE
:101B83007412120C39C082C0837402120C39121DF4
:101B930066D083D082E0C398F8A3E099F9C3E89EA6
:101BA300E9121D73503A7402120C39121D7A120C89
:101BB30039121E1E120C39121D8080C485108285B5
:101BC3001183121D3F1213367402120C397442F042
:101BD300A37403F07412120C397445F0A37403F068
:101BE3007412120C39C082C0837402120C39121D94
:101BF30066D083D082E0C398FEA3E099FF740A12F3
:101C03000C39121D6A500A7408120C39E4F0A380CF
:101C1300327405120C39E06004D2F08002C2F07411
:101C23000A120C39E0C39EF8A3E09FF9A2F0E492F4
:101C3300E0FAE8C39AF8E99400F97408120C39E859
:101C4300F0A3E9F0740C120C39E0702B8019746066
:101C5300120C39121D5C120C391212F6120C437459
:101C63000F120C39121E607408120C39121E121254
:101C73000C3912130150D77405120C39E0605074FB
:101C830060120C39121D567405120C39E0F97418E0
:101C9300120C391212F6120C43802C7460120C3998
:101CA300121D567402120C39121DC9F97418120C44
:101CB300391212F6120C437402120C39121D4874B5
:101CC30002120C3912133D740F120C39121E6012DA
:101CD3001D131212AE50C4740C120C39E0700302BF
:101CE30013A47408120C39121E12120C39121301A8
:101CF30050030213A47460120C39121D5C120C39C8
:101D03001212F6120C43740F120C39121E6080D299
:101D1300EE24FF1EEF34FFFFC322E02401F0A3E013
:101D2300340022A2F0E492E0F8E0C398FEA3E0942A
:101D330000FF22121D3A22121D3FF922E024FFF870
:101D4300A3E034FF22E0121D4D222401F8A3E03466
:101D530000F922E0FAA3E0FB22E0FAA3E0FB7920FA
:101D6300741822121DFE22C3E09EA3E0121D7322EB
:101D73009FA2D265D03322121D3A740222121D870C
:101D83007430F022E0F8A3E0F583888222121DFE6E
:101D9300C3E498F8E49922F8A3E03400F9746222CA
:101DA300121DA722E0FAA3E0F5838A82228510821E
:101DB300851183121DA7E022121DA7E0FAA3E022DA
:101DC300851082851183121DCD22121D87E02212F8
:101DD3001DCD121D8822121DCD2402F8A3E034006C
:101DE300F9746222121DF7E8FAE9FB741422121D3A
:101DF300F7740622121D87121DFE22E0F8A3E0F9F4
:101E030022E0FCA3E0F5838C82EAF0A3EBF022E06E
:101E130024FFF0A3E034FFF0740822E8F0A3E9F014
:101E2300740222121351F8A3E022EAF0A3EBF0A309
:101E3300E4F0A3F0740622121DA7E8F0A3E9F074FE
:101E43001422851082851183E0240108121E78E88C
:101E5300F0A3E9F0740422851082851183E0240144
:101E6300F0A3E03400F02212134D2401F8121E787F
:101E7300E8F0A3E922A3E03400F9851082851183F9
:101E83002274F7120C45E9FEEAF8EBF9E8FAE9FBEC
:101E9300740B2E8A828B83F0900207E0F8A3E0F59F
:101EA300838882A3A3A3A3A3E060067861798880D3
:101EB3000478417988E88A828B83A3F0E98A828B4C
:101EC30083A3A3F0900200E08A828B83A3A3A3F0F1
:101ED300900207E0F8A3E0F5838882A3A3E0F8A3C8
:101EE300E0F98A828B83A3A3A3A3E8F0A3E9F08A92
:101EF300828B83A3A3A3A3A3A3ECF0A3EDF090028F
:101F030007E0F8A3E0F5838882E0F8A3E0F98A828A
:101F13008B83A3A3A3A3A3A3A3A3E8F0A3E9F079CB
:101F23000A7F01020CAB74F2120C45ECFEEDFF8943
:101F330008A908EAFCEBFD7A097B0212017CE9FBA4
:101F43007A0080348A0A750B00EE250AF582EF3594
:101F53000BF583E0C0E08B0A750B008A0C750D004E
:101F6300E50C250AF8E50D350BF9E82409F582E9B6
:101F73003402F583D0E0F00AEAC3950840C6E508C9
:101F83002BF97F06020CAB74F7120C457E7C7F02A3
:101F930012021E1201CA7901EEFAEFFB1202068E3B
:101FA300828F83E0C2E7F08E828F83E064057053F3
:101FB3008E828F83E0F97A7D7B021202068E828FF6
:101FC30083A3E0A2E55004D2F08002C2F0A2F0E4C1
:101FD30092E090030CF07880790288828983A3E0F1
:101FE300A2E740030220AE8E828F83A3A3A3E0FA6D
:101FF300900200E06A60030220AE7401900201F0D7
:102003000220AE8E828F83E024F5900309F08E8246
:102013008F83E0F97A7D7B021202068E828F83A37F
:10202300E0A2E55004D2F08002C2F0A2F0E492E014
:1020330090030CF08E828F83A3A3A3A3A3A3A3A3D4
:10204300E0F8A3E0F9900305E8F0A3E9F090030AB0
:102053007486F0A37402F0900309E0F83395E0F975
:1020630090030AE028F8A3E039F988828983E09095
:10207300030DF088828983A3E0A2E7502290030432
:10208300E0FA8E828F83A3A3A3E06A60128E828F0D
:1020930083A3E054DF64417006740190030EF08E55
:1020A300828F83A3A3A3E0900304F01201D0120252
:1020B300247F01020CAB74F4120C45EAFEEBFF1211
:1020C30001E8E964017004790180731201D0900280
:1020D30007EEF0A3EFF090030A7400F0A37400F08E
:1020E3007401900202F09003107808120AE690023D
:1020F300037808120AF5900207E0F8A3E0F5838855
:1021030082A3A3A3A3E0F91201EE900207E0F8A3D0
:10211300E0F5838882E0FAA3E0FB1201F490020762
:10212300E0F8A3E0F5838882A3A3E0FAA3E0FB121F
:1021330001FA7A887B0112022A1201CA79007F040C
:10214300020CAB74F4120C45EAFEEBFF8C0A8D0B08
:102153008908900202E07003120212E508C3946733
:10216300500585080980037509678509081202303F
:1021730012021EA908AC0AAD0BEEFAEFFB120182A4
:10218300E9F97A097B0212020012022412020CE915
:10219300900207E0F8A3E0F5838882A3A3A3A3A397
:1021A300E0601C7400900201F07A4A7B021201DCA9
:1021B300900201E06004740080027401FE80027EDC
:1021C30000900202E07003120218EE700790020002
:1021D300E02401F0EEF97F04020CABC082C08374EB
:1021E30000900202F0120218D083D0820200FB7426
:1021F300F2120C4574EC120BEE750A00750B00120B
:10220300019A801C7A017B001201BE7A647B001262
:1022130001E27A017B001201B87A847B031201E2A6
:102223001202428A088B0985080C85090D780C1265
:102233000D987C147D03740C120C39AA82AB8312A3
:10224300025A7402120C04740A120C39858208852E
:1022530083097808120D987A197B0312024E7402CF
:10226300120C04C3E50C942CE50D9401A2D265D0A5
:10227300335006750A02750B00C3E50C942DE50D6A
:102283009401A2D265D0334006750A03750B00781A
:102293000A120D987C147D037402120C39AA82ABC6
:1022A3008312025A7402120C0485108285118385ED
:1022B30082088583097808120D987A197B03120224
:1022C3004E7402120C04790A851082851183AC8244
:1022D300AD837AFF7BFF120194E970030222077A30
:1022E300017B001201BE7AE87B031201E27A017BD3
:1022F300001201B80222231201D61201B21201C444
:102303001201E8E9640170031201AC900300742226
:10231300F0A37420F07426900302F0740190030379
:10232300F09002FE7420F0A37426F07AFE7B021272
:10233300018EE9640170031201AC12023C0200FB3E
:1023430074F4120C4543F30275B6B143B430E5B4EB
:1023530043B440E5B4A2E750FAE5BA1313543FF58A
:102363000875090085BB0A750B007406780A120B01
:10237300DBE50A4508F508E50B4509F5097402781C
:1023830008120BCCAA08AB097F04020CABC082C0B5
:1023930083906189E04460F074099061FAF07415E8
:1023A3009061B2F074009061AEF012023612022412
:1023B3007900D083D0820200FBC082C08375F00510
:1023C300E9A424D490618FF0D083D0820200FBC0B3
:1023D30082C083EA906174F0EB906175F0D083D092
:1023E300820200FBC082C083EA906172F0EB9061CD
:1023F30073F0D083D0820200FB74F6120C4575E1B2
:10240300EE7591FD7C0080138C08750900EA2508A0
:10241300F582EB3509F583E0F5D90CECC39940E877
:102423007F02020CABC082C0838011E5D98A828B04
:1024330083F08A828B83A3AA82AB8319E9C39401B5
:1024430050E9D083D0820200FB75E1E9E591A2E176
:1024530050FA7591FD79000200FB75E1EC75E1E33B
:102463000200FB75E1EF75E1EC0200FBC082C08363
:102473009061A3E0C2E6F0539AFED083D0820200BB
:10248300FBC082C0839061A3E0D2E6F0439A01D0FF
:1024930083D0820200FBC082C083A2AFE492E0FC3F
:1024A300C2AF9002FCEAF0A3EBF0ECA2E092AFD053
:1024B30083D0820200FBC082C083906193E05422E8
:1024C30070F8D083D0820200FB0200FB74F7120C79
:1024D300458A828B83122565E9F08A828B83E02407
:1024E30001FCA3E03400FD8A828B83ECF0A3EDF0C2
:1024F3007F01020CAB74F6120C4574FC120BEE74E4
:1025030002120C39EAF0A3EBF0ECFAEDFB740E12B5
:102513000C39A882A983851082851183E8F0A3E989
:10252300F0851082851183858208858309780812D6
:102533000D987404120C3985820885830978081272
:102543000D987C547D021202667404120C0474020A
:10255300120C39122565E4F07404120C047F020294
:102563000CABE0F8A3E0F583888222C082C08379B4
:10257300001201A6E9601079011201A0790012018D
:10258300A6E960031201AC79001201A0D083D082C6
:102593000200FBEBC313FBEA13FAEAF8EBF974FF4F
:1025A30028FA74FF39FB74006870037400696013C0
:1025B3000000000000000000000000000000000018
:1025C3000080D70200FB74F7120C45EAFEEBFFEE26
:1025D300F8EFF974FF28FE74FF39FF740068700385
:1025E30074006960097AE87B031201DC80E17F01F2
:1025F300020CAB53F4F2E5F443FE0DE5FE53F5FE96
:1026030043FF0143900DE590D2A00200FBEAA2E054
:102613005002D290EA54026003859090EA54046019
:1026230003859090EA54086002D2A00200FBEAA25C
:10263300E05002C290EA54026003859090EA540489
:102643006003859090EA54086002C2A00200FB7503
:10265300F10043F30CE5F353FF3FE5FF438680436B
:10266300864075C50943C23BE5C2C2E90200FB745B
:10267300F7120C45E9FA7B00120E377F01020CAB0F
:1026830074F6120C4574FE120BEE740C120C39A87E
:1026930082A983851082851183E8F0A3E9F0851070
:1026A300828511838582088583097808120D9875C0
:1026B30008007509007808120D987C487D02120203
:1026C300667404120C047402120C047F02020CAB35
:1026D300748055C6FA53BEFBE59DA2E550FAE59D0D
:1026E300A2E240F400740169700774494AF5C68098
:1026F30005E970028AC6E5C6FAE59EFBEA6B70F946
:1027030043BE040200FBE9FAE59EA2E64004790118
:10271300801CEA700553C67F800874016A70034306
:10272300C680E5C6FBE59EFCEB6C70F97900020000
:0D273300FBD2AF0200FBC2AF0200FB80FE34
:04000005000000E314
:00000001FF
