:020000040000FA
:030000000200E318
:10008300020EF800000080FB120113B90003020006
:10009300CDE490020078BE79028002F0A3D8FCD9A7
:1000A300FA9003BDAA82AB8390011678347902805B
:1000B30015E493A3AC82AD838A828B83F0A3AA82D7
:1000C300AB838C828D83D8E9D9E77582027583234C
:1000D30074001200F575828675830074001200F5B2
:1000E30075D0007581BF751000751102759F0002F0
:1000F300008BC09FF59FE473D09F22D083D082C032
:100103009FE493C0E0740193C0E0740293F59F22CF
:10011300790122FF00000000000000000000000041
:1001230000000049364345383631304634453030D7
:100133003445304235344536464630433637303918
:100143003445424135313635344642354646303101
:100153004646303100310036434538363130463477
:1001630045303034453042353445364646304337E2
:1001730030444639364645384438353638303746C4
:100183004630314646303100330041542B434D470E
:10019300533D222573220D0A0025630D0A004154A5
:1001A3002B434D47463D310D0A0041542B43534DDC
:1001B300503D31372C3136372C312C380D0A004164
:1001C300542B435343533D2255435332220D0A00CC
:1001D30030303331303033383030333830303335FA
:1001E30030303332303033373030333030303333F4
:1001F300303033303030333730303333000A30313E
:100203003233343536373839414243444546002882
:100213006E756C6C20706F696E74657229003F3F58
:100223003F000000803FF9021550B743BA51000068
:10023300204100E7DB2E0000A04010000000080072
:1002430000000A0000001200FE3B1F001200FE6ABD
:1002530020001200FEF720001200FE07210012000A
:10026300FECA21001200FE4226001200FE7826007C
:100273001200FE6F28001200FE0427001200FE1E6B
:1002830027001200FE3F27001200FE65280012001F
:10029300FE6A28001200FEBA25001200FEE22500C5
:1002A3001200FE1526001200FE2524001200FE5146
:1002B30024001200FE6124001200FE7724001200C5
:1002C300FE8C24001200FEA124001200FEC52400AF
:1002D3001200FECE24001200FEE324001200FEF8FA
:1002E30024001200FE1825001200FEDE2100120079
:1002F300FE5223001200FE9423001200FE46280043
:100303001200FEB527001200FEC027001200FEE90E
:1003130027001200FEFE27001200FEA32600120093
:10032300FEB426001200FE1B25001200FE44250029
:100333001200FE6027001200FE390F001200FE11AA
:100343001400E066701008A3E066700A08A3E06674
:10035300700408A3E06622C3E7960809E796080934
:10036300E7960809E796A2D265D03322080808E683
:1003730030E711120BAB120387080808C64480C686
:1003830018181822181818E9799EC608CAC608CB87
:10039300C608CCC6C370207996CACBCC7019798EA7
:1003A300CBCC70137986CC700EF9802ACA33CACBB2
:1003B30033CBCC33CC331930E7F2CCCBCA33501424
:1003C3007004EA30E00DE4CA3ACACB3BCBCC3CCC58
:1003D300500209C3E913C6CC182313C6CB18C6CAE7
:1003E30018C6F92212042720F01430E72B74FFFCFF
:1003F300FBFA747F8022E4FCFBFA7480801AB480D9
:1004030008BC00F2BB00EF800F50EBF9E4C39AFA8B
:10041300E49BFBE49CFCE499C6CC18C6CB18C6CA83
:1004230018C6F922E4C9C608CAC608CBC6D3330323
:1004330008CCC63392F0C3947F402E94184019C958
:10044300B90704CACBCC225025C309CA33CACB335C
:10045300CBCC33CC33D9F422F4600DC9CCC313CB4A
:1004630013CBCA13CAD9F6CC22E4FCFBFA2214FC40
:10047300FBFA22E6C33318461846184622E7C3336D
:1004830019471947194722181818E6084608700A29
:10049300E608C3337005E633F4220822191919E775
:1004A300094709700AE709C3337005E733F42209E2
:1004B30022E6084608C3134608336002E633F422F3
:1004C300E7094709C3134709336002E733F42212EC
:1004D30004B460251204C36020120476700302047E
:1004E30080080808E76670101819E766700A18197B
:1004F300E76670041819E76622F4221204B4601C3C
:100503001204C3601712047670071204807001D3BB
:1005130022C0D01204807006D0D0B322C32233D0BD
:10052300D0501430E0F6C3E7960809E7960809E7C8
:10053300960809E796B32220E0D5E6970809E697DF
:100543000809E6970809E697B3221204B4601B1260
:1005530004C360161204767007120480600CB32281
:10056300C0D01204807005D0D022C32233D0D05023
:100573001330E0EBC3E7960809E7960809E7960806
:1005830009E7962220E0E4E6970809E6970809E6DA
:10059300970809E69722001204B4604F1204C3605F
:1005A30012E7548066F612048A7011120480703BBD
:1005B300090909F4F618F618F618F62212049F70C2
:1005C3001512047608080860EAE6447FF618768078
:1005D30018E4F618F62212047660161204807012DC
:1005E300E4F608F608F608E65480F609090918182F
:1005F3001822EAC0E0EBC0E0ECC0E0EDC0E0E68723
:10060300F0A4FBACF008E687F0A42CFCE435F0FA88
:100613001809E687F0A42C4B60027401CA35F0FC7C
:10062300E433FB09E687F0D2F7A42CCB35F0FC19B1
:1006330008E687F0A42BCC35F0FBE433FD0819E67C
:1006430087F0D2E7A42C4ACB35F0CD3400FC09E681
:1006530087F0D2E7A42DCC35F0FDE433FA0918E690
:1006630087F0D2F7A42CCD35F0CA3400FC08E68716
:10067300F0D2E7D2F7A42ACC35F07A7E20E70B0A32
:10068300CB33CBCD33CDCC33CC33CB3350147004FD
:10069300ED30E00ED2F1E4CD3DCDCC3CCC3B50056A
:1006A300DA05C2F1EB547FC63308E63392F0FBE779
:1006B3003309E733C39A502D2B70190C0D4C4D7031
:1006C300151806E608C333700D20F10AA2F013F6DD
:1006D300E418800B4024E4F630F002768018F61814
:1006E300F618F68024D33B14501074FFA2F013F6CF
:1006F300187680E418F618F6800FA2F013F618E6C1
:100703003303F618ECF618EDF6D0E0FDD0E0FCD09C
:10071300E0FBD0E0FA221204C360461204B4603D49
:10072300E9687008F618F618F618F622748067F769
:1007330012074D090909748067F7221204B4601D7A
:100743001204C37005191919801A12048A701F1232
:10075300049FC37003E66733191919400718181863
:100763002208080874FFF618F618F618F622120481
:100773009F6017120480702192F012047670195052
:100783001720F014080808090909E7F61819E7F60D
:100793001819E7F61819E7F62212047660E6E869F5
:1007A300701F0808E62480F608E436F618547FB470
:1007B3007F0CE654806007F6E418F618F622181842
:1007C30022E9C6CC08C6CD08C6CE08C6CFC0E0E82D
:1007D300C0E0EAC0E0EBC0E009E9F809E7FA09E79D
:1007E300FBE6F918E6F8C3EC98ED99EE9AEBC2E74D
:1007F300F5F0EFC2E795F0500E600CEBCFFBEACEBD
:10080300FAE9CDF9E8CCF8EAA2E7D2E7FAEB33FB51
:1008130013F5F0EEA2E7D2E7FEEF33FFC5F013A224
:10082300E730E601B313C5F0C3C0E0C0F07F00C3F7
:100833009BFB605B9418600C401AD0E023F9D0E076
:10084300F802091C8AF0E9486003D2F0E4AFF0FA39
:10085300F9F8803BEB30E40D89F0EA6003D2F0E471
:10086300AFF0F9CAF8EB30E30D88F0EF6002D2F095
:10087300AFF0E4CAC9F8EB54076014FBC3EA13FAF8
:10088300E913F9E813F8EF135002D2E0FFDBEDD0E0
:10089300E0C0E030E739C3E49FFFF5F0EC98FC4299
:1008A300F0ED99FD42F0EE9AFE42F0D0E0F9D0E08F
:1008B300F8E5F0607AE923F9EE20E742D802806791
:1008C300C3EF33FFEC33FCED33FDEE33FE80EAEC94
:1008D30028FCED39FDEE3AFED0E023F9D0E0F840F4
:1008E30002801BC3EE13FEED13FDEC13FCEF13505C
:1008F30002D2E0FF08B800067F7F74FF802EEF333B
:1009030050178CF020F00260100CBC000C0DBD00E1
:10091300080EBE000408E860DFE933E813FFEE23A6
:1009230013FE4F4D4C8008E95480FFE4FEFDFCEEBE
:1009330033EF33F47004FCFD7E80D0E0FBD0E0FAAB
:10094300D0E0F8D0E0CFC618CEC618CDC618CCC6B6
:10095300F9221204B47004181818221204C3700D7B
:1009630074FFF61819F61819F61819F622E75480C9
:1009730066F6120476700F12048070F014F608F60F
:1009830008F608F680D1120480700CF608F6087693
:100993008008E6447F80EC1204A2700C12048D6080
:1009A300BFE65480F6E480BB12048D700519191953
:1009B30080A5E869700C763F18768018F618F6E87B
:1009C300F922E6CDC0E018ECC0E0E633CD33CDD359
:1009D30013F6E719FCE7191933CC33C3947F400EA0
:1009E300CD9D502408E65480F6E418F6800FF404F5
:1009F3003D14501408E6447FF6187680E418F61880
:100A0300F6D0E0FCD0E0FD22CCD313CCFD18E4C635
:100A1300CBC0E018E4C6CAC0E00808ED08C633E658
:100A230013F618E433C675F003C3CA97CA09CB9704
:100A3300CB199C40047D08802EBD0003020AFE16DC
:100A4300B6FF050606081618C3CA33CACB33CB3321
:100A5300CA27CA09CB37CB193CC37D08803E187D12
:100A63000820E75CC633C6CA33CACB33CB33DDF1C8
:100A7300D5F0EB30E77BCA97CA09CB974ACB199CD1
:100A8300406F4B7025E620E0218066187D08C3CABD
:100A930097CA09CB97CB199CD3C633C6CA33CACBE3
:100AA30033CB3350C9DDE7D5F0E1D3E4C636C6080E
:100AB300C636C608C636C608C636C61818188031E4
:100AC300C3CA97CA09CB97CB199CB34097C633C601
:100AD300CA33CACB33CB33DD34D5F02EC6A2E0C63E
:100AE30040C8CA27CA09CB37194A70BECB3CB48069
:100AF300B90808E63308E633601F181818D0E0FA7F
:100B0300D0E0FBD0E0FCD0E0FD22187D08CA27CA64
:100B130009CB37CB193CD3808013F618E4B67F1189
:100B2300F618B6FF0EF618C60470D2080876808051
:100B3300CAF618F618F680C5E4CFC0E0E4CEC0E0EC
:100B4300E4CDC0E0E4CCC0E075F020C3E633F608A2
:100B5300E633F608E633F608E633F6181818EC33EE
:100B6300FCED33FDEE33FEEF33FFC3EC9709ED9756
:100B730009EE9709EF97191919400FFFEC97FC0934
:100B8300ED97FD09EE97FE191906D5F0BEECF709AE
:100B9300EDF709EEF709EFF7191919D0E0FCD0E0EA
:100BA300FDD0E0FED0E0FF22181818E4C396F60843
:100BB300E496F608E496F608E496F622E0F608A32F
:100BC300E0F608A3E0F608A3E0F622E6F008A3E6C1
:100BD300F008A3E6F008A3E6F022CAC0E0E6F0A31B
:100BE30008DAFAD0E0FA22CAC0E0E0A3C582CCC595
:100BF30082C583CDC583F0A3C582CCC582C583CD11
:100C0300C583DAE6D0E0CA22C3E498F8E499F9127E
:100C13000C4C8026C3E49AFAE49BFBE920E7E91233
:100C23000C4CE498F8E499F922C3E498F8E499F9B0
:100C3300120C4CE498F8E499F9C3E49AFAE49BFBA8
:100C430022EB20E7CFE920E7E0B90010BB0008E87A
:100C53008AF084F8AAF022E4FBC8FA22EB70227B24
:100C630010C833C8C933C9335007C39AC3DBF280F2
:100C7300069A50012ADBEAC833F4C8C933F4C9FA27
:100C83002275F008E4C833C8C933C933C99AC99B6C
:100C93005004C92AC93BD5F0ECFBC833F4C8E4C9F6
:100CA300FA22251010AF08F510400215118008F53F
:100CB3001040021511D2AF22C0D0251010AF08F595
:100CC30010500205118008F51050020511D2AFD063
:100CD300D0222510F58210AF08F5104002151180BF
:100CE30008F51040021511D2AF851183222510F5A6
:100CF30082E43511F58322E4732510C582C0E0E553
:100D03001134FFC583C0E0E510C3958224F8F8E4ED
:100D1300C5A8858311858210C5A8E8CEF0A3E52078
:100D2300F0A37808E608F0A3DEFAEFF0A3E5812448
:100D3300FAF8E608F0A3E608F0A3E608F0A308082B
:100D4300E608F0A3E608F0A315811581D0E0FED0F4
:100D5300E0F8158115811581E8C0E0EEC0E0228539
:100D63001183851082E0A3FEE0A3F5207808E0A3B9
:100D7300F608DFFAE0A3FFE0A3C0E0E0A3C0E0E0F1
:100D8300A3C0E0E0A3C0E0E0A3C0E0E4C5A885827F
:100D930010858311C5A8D083D0820200FBC0D02563
:100DA30010C582C0E0E51134FFC583C0E0E510C380
:100DB300958224F310AF08858311858210800885FE
:100DC3008311858210D2AFC8F0A3E9F0A3EAF0A3A0
:100DD300EBF0A37908E709F0A3D8FAECF0A3EDF060
:100DE300A3EEF0A3EFF0A3D0E0F0A3D0E0F0A3D004
:100DF300E0F0A3E520F0A3E5F0F0A32285118385BD
:100E03001082E0C0E0A3E0F9A3E0FAA3E0FBA3783B
:100E130008E0F608A3DFFAE0FCA3E0FDA3E0FEA3ED
:100E2300E0FFA3E0C0E0A3E0C0E0A3E0F5D0A3E0CF
:100E3300F520A3E0A3F5F0E4C5A88583118582100E
:100E4300C5A8D082D083D0E0F8D0E032740280020B
:100E53007401C0E0F404120CD5D0E0120BDD22744F
:100E6300028000CCC0E0EDC0E0E510C39CCCAD1126
:100E730050011D10AF068C108D1180068C108D1142
:100E8300D2AF120BEAD0E0FDD0E0FC22D083D082B7
:100E9300CCC0E0E493A36006120EB91470FAE49395
:100EA300A36006120ED81470FAD0E0FCE493A3C03A
:100EB300E0E493C0E022C0E0E493A3D39C5010E4A9
:100EC30093A3C39C400AD0E0D0E0D0E0020EACA3D1
:100ED300A3A3D0E022C0E0E493A36C7009D0E0D0D8
:100EE300E0D0E0020EACA3A3D0E022EAF5C1A2E970
:100EF30050FCC2E922C0E074F2120DA0A2AFE4924A
:100F0300E0FEC2AFE5E9A2E65022900289E0640068
:100F13007004A3E06400600E900289E0F8A3E0F59A
:100F2300838882120CFA759B0053E9BFEEA2E0920C
:100F3300AF7F01020DFF74F0120CFC74FD120CA5BF
:100F43007402120CF0E9F08A088B098C0A8D0B7479
:100F530015120CF0E0FCA3E0FD851082851183E4FB
:100F6300F0A3F09004CC780C120BBF7808790C1224
:100F730004FE50030210179003C9780C120BBF78BC
:100F830008790C1204D2600302106B7417120CF070
:100F9300E070030210AD851082851183C082C08387
:100FA3007413120CF0121E1DD083D0821213A150A1
:100FB3002C851082851183C3E094FCA3E094FFA2E7
:100FC300D265D03340177402120CF0E4121EDDF91F
:100FD3007413120CF0C3E098F0A3E099F0741312A9
:100FE3000CF01213DF7418120CF0E070030210AA55
:100FF3007417120CF0E40210AC9004D0780C120BAE
:10100300BF7808790C120955851082851183E02475
:101013000A121F1A9004D4780C120BBF7808790CAB
:101023001204FE40D49004D8780C120BBF780879D0
:101033000C1204FE4003020F8E9004D8780C120B9E
:10104300BF7808790C120955121F1180D89004D06B
:10105300780C120BBF7808790C12059985108285DC
:101063001183E024F61213E29004DC780C120BBF18
:101073007808790C12054D40D49004CC780C120BEF
:10108300BF7808790C12054D4003020F8E9004D8E7
:10109300780C120BBF7808790C120599851082859C
:1010A30011831213DF80D27401F07402120CF0E08A
:1010B30060077A007B000211AB1213B2506D12135A
:1010C300D0120CF0E0FEA3E0FFEE7001EF700874A5
:1010D30018120CF0E0600B742E8C828D83F0A30C3D
:1010E300AD837A007B0080091213D0120CF0121327
:1010F300DFEA24FF1AEB34FFFB851082851183128C
:101103001395500C7413120CF0E07002A3E070D826
:1011130085108285118374FFC39EF874FF9FF912B3
:1011230013A1500302127A7A0180898510828511F6
:1011330083121E1DC3E498FAE499FB806B85080CA7
:1011430085090D850A0E850B0F780C1203E7AE0C8B
:10115300E50D3395E0F50EF50F780C12036F780863
:10116300790C1207199004D8780C120BBF78087900
:101173000C120599EE1213C3EAF8EBF97401280A6D
:10118300E439FBE87001E9701F7413120CF0E0708E
:1011930002A3E070087418120CF0E0600B742E8C3C
:1011A300828D83F0A30CAD837413120CF01213958C
:1011B300508B9004E0780C120BBF7808790C120462
:1011C300FE400302127A7E01EC24FFF8ED34FFF9AE
:1011D3007415120CF0E0F508A3E0F5098882898301
:1011E300E0642E6010E02EF0643A70077430F07EF5
:1011F3000180027E00E8FAE9FBEA24FF18EB34FFE2
:10120300F9C3E5089AE5099B40D2EE7001E46067F3
:101213007402120CF0E06036ECF8ED800A121380D1
:10122300E824FF18E934FFF9C3E50898E509995064
:101233001812136DE0642E70E4E824FEF582E9349D
:10124300FFF58312137AF980D7121F11801E8C8247
:101253008D83A3AC82AD83ECF8ED800612136D127F
:10126300137AF9C3E50898E5099940F07415120C4F
:10127300F01213AD7431F07417120CF0E0700580A6
:101283001A1CAD83EC24FFF582ED34FFF583E06493
:101293003060EEE0642E70031CAD837402120CF018
:1012A300E070030213551213C5A3A9831213B2509E
:1012B30018742D8C828D83F00CE9FD8510828511C5
:1012C30083121E471213ED800A742B8C828D83F0D8
:1012D3000CE9FD7E007F00EC240AFCED3400FDEEFA
:1012E30024010EEF3400FF121387120C44EA121389
:1012F300C3121387120C441213FA7002A3E070DFB7
:10130300C3EE940212136440D6EEFAEFFBC3E49EDD
:10131300F8E49FF9EC28F582ED39F583E0C0E0C3EA
:10132300E49AF8E49BF9EC28F8ED39F9EE28F8EFA4
:1013330039F974F528F58274FF39F583D0E0F0129A
:101343001DCAEE940112136450C3EC24F6FCED3471
:10135300FFFDECFAEDFB7403120CBB7F08020D6278
:10136300C3EF9400A2D265D03322E824FFFAE93414
:10137300FFFB8A828B832212138018EB22E0888280
:101383008983F022851082851183121EB57A0A7B28
:101393000022C3E09AA3E09BA2D265D03322C3E02C
:1013A30098A3E099A2D265D03322E0121E3F228592
:1013B3001082851183C3A3E09400A2D265D03322A7
:1013C30024308C828D83F0A3AC82AD832274308C65
:1013D300828D83F0A3AC82AD83741322E024FFF0EB
:1013E300A3E034FFF022A3E03400F98510828511D5
:1013F30083E8F0A3E9F02285108285118312140497
:1014030022E8F0A3E9F0851082851183E02274F0CD
:10141300120CFC74B0120CA5851082851183121E68
:10142300C37418120CF0ECF0A3EDF0740F120CF06F
:10143300E4F0A380227460120CF0121E0D740412E7
:101443000CF0E0F97418120CF01213AD120CFA74CC
:101453000F120CF0121DD4F0121E7AFA121EFC1297
:101463000CF0EAF074256A6010E070C9740F120C76
:10147300F0121E0D745002135B121E7A642570194C
:10148300851082851183E02401081213E974601228
:101493000CF0121E0D792580AB740E120CF0E4F0E3
:1014A300740D120CF0E4F0740C120CF0E4F07405FB
:1014B300120CF0E4F0741E120CF0A882A9837402DB
:1014C300120CF0800E7405120CF0E0602685108279
:1014D300851183121400121E04121E67FA120E8F56
:1014E300000520C8142308152BF6142DFF14300C07
:1014F3001510157405120CF0EAF080D1740C120C5F
:10150300F0E00480F4740D80F5740E80F1121E6710
:10151300642A705B7462120CF0121E72FB8A828B57
:1015230083E0FCA3E0FD740A120CF0ECF0A3EDF0F1
:10153300EA24020A0AEB3400FB7462120CF0121E56
:10154300BB740A120CF01213B8501F740A120CF079
:10155300121E0DC3E49AFAE49BFB740A120CF012F8
:101563001EC3740C120CF0E004F01213EE804C74E2
:101573000A120CF0E4F0A3802F740A120CF0121E6E
:101583001DE875F00AA4F8AAF075F00AE9A42AF98F
:10159300E82508F8E93400F974D028F874FF39F91C
:1015A300740A120CF0121F21121EDDF5838882E0EB
:1015B300F50874D02508C3940A40BE740C120CF0CD
:1015C300E06007740E120CF0E4F0121E7A642E60D1
:1015D3000302165D851082851183E0240108A3E0D0
:1015E3003400F91213FA1213AEE0642A702C7462F9
:1015F300120CF0121E80F8A3E0F988828983E0FEC2
:10160300A3E0FFE824020808E93400F97462120C2D
:10161300F0121E5A121F21F080447E007F00121E1A
:101623007AF50874D02508C3940A5032EE75F00A8F
:10163300A4FEAAF075F00AEFA42AFFEE2508F8EF3E
:101643003400F974D028FE74FF39FF8510828511A8
:1016530083E02401F81213E980C47EFF7FFF7A0040
:10166300851082851183121DFF851082851183E009
:10167300FBA3E0F5838B82E0120E8F00034C8B16E5
:10168300688C166C8B168F160A1213EE121E7AFBD9
:10169300121EFC120CF0EBF0120E8F001000761CE1
:1016A30045321B470D1B58311863321764DE18652A
:1016B300321B662B1B670D1B69DE186ED2166F1F5C
:1016C30018703118736B17753118783118821C74C0
:1016D30062120CF0121EA8120CF01213F4EA603519
:1016E300740F120CF0E0FCA3E0FD3395E0FE7406EA
:1016F300120CF0121E89ECF0A3EDF0A3EEF0A3F0B0
:101703007462120CF0121E90120CF0121E5AE8F0C2
:10171300A3E902145A740F120CF0121E1D74061260
:101723000CF0121E72F5838A82E8F0A3E980D0746C
:1017330062120CF0121E89E0C0E0741E120CF0D08D
:10174300E0F07462120CF0121E90120CF0121E5A8A
:101753001213F4741F120CF0A882A9837412120CD2
:10176300F0E8F0A3E9021C997462120CF0121EA8AF
:10177300120CF01213F47406120CF0121EA8120CC1
:10178300F0E02402FAA3E03400FB7462120CF012BE
:101793001EBB7402120CF01213F4E87001E9700C12
:1017A3007402120CF074B9F0A37404F012136350B2
:1017B300047E107F277408120CF0E4F0A3800874F1
:1017C30008120CF0121DD4F07402120CF0121E1D3C
:1017D30088828983A3AA82AB837402120CF0121E3F
:1017E300C388828983E0600A7408120CF0121E21F8
:1017F30040CD7402120CF0121DED7412120CF01293
:1018030013F47408120CF0121E47F97412120CF040
:10181300E028F8A3E039F97402021761740D120C81
:10182300F0E0600AEE7001EF70047E017F007462E5
:10183300120CF0121EA8120CF0121F09120CF0E089
:101843006470703C7406120CF0121E9E120CF0129F
:101853001EE4120CF0E02402121E51120CF0121EB0
:101863005A1213F49004E47808120BBF741A120C82
:10187300F07808120BCE7405120CF0E4F002197B19
:10188300EA60217406120CF01213AD7808120BBF34
:101893007414120CF07808120BCE7406120CF0E0DC
:1018A300240480147406120CF0121E9E120CF01203
:1018B3001EE4120CF0E02402121E51120CF0121E50
:1018C3005A121F09120CF0E0646F70059004E8804F
:1018D30096E06475708E9004EC808C7462120CF048
:1018E300121EA8120CF01213F4EA60187406120CFC
:1018F300F01213AD780C120BBF7406120CF0E02437
:1019030004F8801F7406120CF0121E80F50CA3E07D
:10191300F50D3395E0F50EF50F7406120CF0E02487
:10192300020808121E52120CF0121EF1120CF0786B
:101933000C120BCE9003C97808120BBF7808790CF0
:1019430012035A50217405120CF0742DF074141202
:101953000CF07808120BBF7808120BAE7414120C3B
:10196300F07808120BCE9004EC7808120BBF741AAF
:10197300120CF07808120BCE744F120CF0A882A947
:10198300837402120CF01213F47412120CF0121E70
:10199300F4120CF0C082C0839003C97808120BBF05
:1019A300D083D082780812034560097411120CF0B9
:1019B300740180067411120CF0E4F0EE7001EF7004
:1019C30006E07003021A827402120CF0121E311226
:1019D3000CF0121EF4120CF0780C120BBF741A12D6
:1019E3000CF07808120BBF780C7908120B3BE50852
:1019F30024A8F582E5093404F583E0C0E0740212FB
:101A03000CF01213ADD0E0F07414120CF0780C1239
:101A13000BBF741A120CF07808120BBF780C7908FC
:101A2300120B3B7414120CF0780C120BCE741412BC
:101A33000CF0C082C0839003C97808120BBFD08317
:101A4300D082780812034560030219CA1213635047
:101A53002E740E120CF0E060267405120CF0E06098
:101A630004D2F08002C2F0740A120CF0121DDD8061
:101A73000E7402120CF0121ED5120CF0121E3774E3
:101A830002120CF0121DED744F120CF0C082C083D1
:101A93007402120CF0121E0DD083D082E582C39A19
:101AA300FAE5839BFBC3EA9EEB121E2A40C3740D27
:101AB300120CF0E07003021C9A7411120CF0E07027
:101AC30003021C9A7404120CF0E064786005E0646D
:101AD30058701E121380E824FF18E934FFF97402CA
:101AE300120CF0121ED5120CF01213AD7430021C3E
:101AF30099E0646F6003021C9A7402120CF0121EC8
:101B03006D64307003021C9A80D47408120CF07454
:101B130001F0A3E4F07404120CF0E024FEF0EE7084
:101B230001EF70147E0180177404120CF0E4F0745A
:101B330008120CF0E4F0A3F012136350047E067F46
:101B4300007462120CF0121EA8120CF01213F4743B
:101B530006120CF01213AD780C120BBF7406120CA4
:101B6300F0E02404121E51120CF0121EF1120CF0BC
:101B7300780C120BCE9003C97808120BBF780C793E
:101B83000812054D50227405120CF0742DF07414D4
:101B9300120CF07808120BBFE50BB2E7F50B7414C7
:101BA300120CF07808120BCE740A120CF0121E1DE0
:101BB300741E120CF0E58228F8E58339F9740212D9
:101BC3000CF01213F4740D120CF0E0F508780812FF
:101BD3000E537409120CF0E0F5087808120E5374D2
:101BE30004120CF0120E628E088F097808120E4F41
:101BF300740A120CF0E0F9741A120CF07808120B44
:101C0300BFAA08AB09AC0AAD0B1203397406120C58
:101C1300BB7412120CF0121EC3740E120CF0E060AF
:101C2300767405120CF0E06004D2F08002C2F07406
:101C33000A120CF0121DDD7412120CF0C082C08364
:101C43007402120CF0121E1DD083D082E0C398F8E8
:101C5300A3E099F9C3E89EE9121E2A503A740212CE
:101C63000CF0121E31120CF0121ED5120CF0121EC3
:101C73003780C4851082851183121DF61213ED740B
:101C830002120CF074C8F0A37404F07412120CF076
:101C930074CBF0A37404F07412120CF0C082C083EE
:101CA3007402120CF0121E1DD083D082E0C398FE82
:101CB300A3E099FF740A120CF0121E21500A740853
:101CC300120CF0E4F0A380327405120CF0E060040F
:101CD300D2F08002C2F0740A120CF0E0C39EF8A3A3
:101CE300E09FF9A2F0E492E0FAE8C39AF8E99400DD
:101CF300F97408120CF0E8F0A3E9F0740C120CF07C
:101D0300E0702B80197460120CF0121E13120CF089
:101D13001213AD120CFA740F120CF0121F17740881
:101D2300120CF0121EC9120CF01213B850D774051E
:101D3300120CF0E060507460120CF0121E0D74056A
:101D4300120CF0E0F97418120CF01213AD120CFA25
:101D5300802C7460120CF0121E0D7402120CF0121F
:101D63001E80F97418120CF01213AD120CFA7402DF
:101D7300120CF0121DFF7402120CF01213F4740F04
:101D8300120CF0121F17121DCA12136550C4740CE3
:101D9300120CF0E0700302145B7408120CF0121EB4
:101DA300C9120CF01213B8500302145B7460120CC6
:101DB300F0121E13120CF01213AD120CFA740F1260
:101DC3000CF0121F1780D2EE24FF1EEF34FFFFC367
:101DD30022E02401F0A3E0340022A2F0E492E0F830
:101DE300E0C398FEA3E09400FF22121DF122121D0E
:101DF300F6F922E024FFF8A3E034FF22E0121E04E8
:101E0300222401F8A3E03400F922E0FAA3E0FB2244
:101E1300E0FAA3E0FB7920741822121EB522C3E076
:101E23009EA3E0121E2A229FA2D265D03322121D46
:101E3300F1740222121E3E7430F022E0F8A3E0F5A2
:101E430083888222121EB5C3E498F8E49922F8A38A
:101E5300E03400F9746222121E5E22E0FAA3E0F578
:101E6300838A8222851082851183121E5EE02212EC
:101E73001E5EE0FAA3E022851082851183121E8480
:101E830022121E3EE022121E84121E3F22121E84C4
:101E93002402F8A3E03400F9746222121EAEE8FAB9
:101EA300E9FB741422121EAE740622121E3E121E89
:101EB300B522E0F8A3E0F922E0FCA3E0F5838C82ED
:101EC300EAF0A3EBF022E024FFF0A3E034FFF07488
:101ED3000822E8F0A3E9F0740222121408F8A3E040
:101EE30022EAF0A3EBF0A3E4F0A3F0740622121E9F
:101EF3005EE8F0A3E9F0741422851082851183E073
:101F0300240108121F2FE8F0A3E9F07404228510BE
:101F130082851183E02401F0A3E03400F02212143F
:101F2300042401F8121F2FE8F0A3E922A3E03400F0
:101F3300F98510828511832274F7120CFC7E097FC8
:101F4300021202D312028B7901EEFAEFFB1202C7DF
:101F53008E828F83E0C2E7F08E828F83E064057008
:101F6300538E828F83E0F97A0A7B021202C78E8234
:101F73008F83A3E0A2E55004D2F08002C2F0A2F066
:101F8300E492E09003C5F0780D790288828983A3F7
:101F9300E0A2E7400302205F8E828F83A3A3A3E026
:101FA300FA900200E06A600302205F74019002016C
:101FB300F002205F8E828F83E024F59003C2F08EBF
:101FC300828F83E0F97A0A7B021202C78E828F83A3
:101FD300A3E0A2E55004D2F08002C2F0A2F0E492A2
:101FE300E09003C5F08E828F83A3A3A3A3A3A3A32F
:101FF300A3E0F8A3E0F99003BEE8F0A3E9F09003AF
:10200300C37413F0A37402F09003C2E0F83395E0B5
:10201300F99003C3E028F8A3E039F988828983E0C3
:102023009003C6F088828983A3E0A2E7502290033D
:10203300BDE0FA8E828F83A3A3A3E06A60128E822F
:102043008F83A3E054DF6441700674019003C7F0EB
:102053008E828F83A3A3A3E09003BDF0120291129B
:1020630002D97F01020D6274F4120CFCEAFEEBFF4D
:102073001202A9E96401700479018073120291903C
:102083000207EEF0A3EFF09003C37400F0A3740013
:10209300F07401900202F09003C97808120BBF900C
:1020A30002037808120BCE900207E0F8A3E0F58351
:1020B3008882A3A3A3A3E0F91202B5900207E0F874
:1020C300A3E0F5838882E0FAA3E0FB1202BB90024F
:1020D30007E0F8A3E0F5838882A3A3E0FAA3E0FB7B
:1020E3001202C17A497B021202DF12028B79007F4E
:1020F30004020D62C082C0839003C7E0F9D083D08D
:10210300820200FB74F2120CFC8A088B09890AEC28
:10211300FEEDFF1202919003C2E0F83395E0F985DA
:102123000A0C750D00C3E8950CE9950DA2D265D094
:1021330033500D9003C2E0F50C3395E0F50D800CA0
:10214300850A8275830085820C85830D780C120EB7
:102153004F9003C3E0FCA3E0FDAA08AB09120315EB
:102163007402120CBBEE64007003EF64006024126F
:1021730002AFE9F5089003C6E0F83395E0F9750975
:1021830000E8C39508F8E99509F98E828F83E8F092
:10219300A3E9F074009003C7F012028B9003C2E02E
:1021A300F83395E0F9850A08750900C3E89508E94D
:1021B3009509A2D265D03350079003C2E0F980029B
:1021C300A90A7F06020D62C082C0837401900202D5
:1021D300F01202CDD083D0820200FB74F6120CFC05
:1021E3007480120CA5120261120255E960FA7C0098
:1021F3007D007980851082851183AA82AB831202C8
:102203005BE9F87900C3E89401E99400A2D265D0B0
:102213003340D57400C0E0851082851183E58228A0
:10222300F582E58339F583D0E0F08510828511834B
:10223300AA82AB831203217CFF7D03851082851163
:1022430083AA82AB831203338A088B09740065085F
:1022530070047400650960407A017B0012027F7C80
:10226300147D009004A7E0F97A917B021202F17ABF
:10227300E87B031202A37A017B0012027F7ACE7BF2
:10228300031203097C147D00792B7A277B03120246
:10229300F17A017B001202857C327D0485108285F0
:1022A3001183AA82AB831203338A088B09740065F6
:1022B3000870047400650970030221EB7A017B0046
:1022C30012027F7C147D009004A7E0F97A917B02CF
:1022D3001202F17AE87B031202A37A017B00120255
:1022E3007F7A017B041203097C147D00792B7A2702
:1022F3007B031202F17A017B001202850221EB12A9
:1023030002971202797A0079001202FD1202F71283
:1023130002A9E96401700312027390028D7422F022
:10232300A37420F0742690028FF07401900290F051
:1023330090028B7430F0A37426F07A8B7B02120226
:102343004FE9640170031202731202EB0200FB7483
:10235300F7120CFC8908ECFEEDFF1203098008EE6E
:1023630024FFFEEF34FFFFC3EE9401EF9400A2D2EB
:1023730065D033401512030FEAFAE5086A70E07A74
:10238300017B001202857901800279007F01020D31
:102393006274F6120CFC75087A7509047808120E3B
:1023A3004F7C347D047A917B0212032D7402120C4C
:1023B300BB75081A7509007808120E4F7C437D041B
:1023C3007A277B0312032D7402120CBB7C147D004D
:1023D300794F7A487B041202F17AE87B031202A355
:1023E3007A017B0012027F7C1E7D00794F7A547B39
:1023F300041202F17AE87B031202A37A017B001232
:10240300027F7C1E7D00794F7A697B041202F17A88
:10241300E87B031202A37A017B0012027F7F020290
:102423000D62C082C083906189E04460F0740990BA
:1024330061FAF074159061B2F074009061AEF0121D
:1024430002E51202D97900D083D0820200FBC08258
:10245300C0839003CDE0F9D083D0820200FBC08219
:10246300C08375F005E9A424D490618FF0D083D0A4
:10247300820200FBC082C083EA906174F0EB90613A
:1024830075F0D083D0820200FBC082C083EA9061E2
:1024930072F0EB906173F0D083D0820200FBC082B4
:1024A300C0838011E5D98A828B83F08A828B83A3D0
:1024B300AA82AB8319E9C3940150E9D083D0820285
:1024C30000FB75E1EC75E1E30200FBC082C0839081
:1024D30061A3E0C2E6F0539AFED083D0820200FBF0
:1024E300C082C0839061A3E0D2E6F0439A01D08317
:1024F300D0820200FBC082C083A2AFE492E0FCC2A0
:10250300AF900289EAF0A3EBF0ECA2E092AFD083A4
:10251300D0820200FB0200FB74F7120CFC8A828B50
:10252300831225B1E9F08A828B83E02401FCA3E0C6
:102533003400FD8A828B83ECF0A3EDF07F01020D62
:102543006274F6120CFC74FC120CA57402120CF0EB
:10255300EAF0A3EBF0ECFAEDFB740E120CF0A88298
:10256300A983851082851183E8F0A3E9F0851082A1
:102573008511838582088583097808120E4F7404B8
:10258300120CF08582088583097808120E4F7C2788
:102593007D0312033F7404120CBB7402120CF0127D
:1025A30025B1E4F07404120CBB7F02020D62E0F863
:1025B300A3E0F583888222C082C083790012026D72
:1025C300E960107901120267790012026DE9600374
:1025D3001202737900120267D083D0820200FBEBF0
:1025E300C313FBEA13FAEAF8EBF974FF28FA74FF52
:1025F30039FB740068700374006960130000000005
:102603000000000000000000000000000080D7026E
:1026130000FB74F7120CFCEAFEEBFFEEF8EFF97423
:10262300FF28FE74FF39FF7400687003740069604B
:10263300097AE87B0312029D80E17F01020D627437
:102643008055C6FA53BEFBE59DA2E550FAE59DA26F
:10265300E240F400740169700774494AF5C68005C5
:10266300E970028AC6E5C6FAE59EFBEA6B70F94398
:10267300BE040200FBE9FAE59EA2E640047901806C
:102683001CEA700553C67F800874016A700343C651
:1026930080E5C6FBE59EFCEB6C70F979000200FB5C
:1026A30074F7120CFCE9FA7B00120EEE7F01020DA7
:1026B3006274F6120CFC74FE120CA5740C120CF06E
:1026C300A882A983851082851183E8F0A3E9F085A8
:1026D30010828511838582088583097808120E4F3D
:1026E3007508007509007808120E4F7C1B7D0312D4
:1026F300033F7404120CBB7402120CBB7F02020D65
:102703006253F4F2E5F443FE0DE5FE53F5FE43FF99
:102713000143900DE590D2A00200FBEAA2E0500233
:10272300D290EA54026003859090EA5404600385D2
:102733009090EA54086002D2A00200FBEAA2E050A3
:1027430002C290EA54026003859090EA5404600345
:10275300859090EA54086002C2A00200FB74F6124E
:102763000CFC8C828D83E0700B80428A828B83A366
:10277300AA82AB838A828B83E0602E7E007F0080F7
:1027830008EE24010EEF3400FFEC2EF8ED3FF9EADA
:102793002EF582EB3FF583E0F50888828983E065B7
:1027A3000870C8A3E070DA80047A007B007F02021D
:1027B3000D6289C1A2E950FCC2E90200FB74F71261
:1027C3000CFCEAFEEBFF80128E828F83E0F912038A
:1027D300038E828F83A3AE82AF838E828F83E0705A
:1027E300E77F01020D62C008A28B50FCE5C1C28BDA
:1027F300F508AA087B00D0080200FB74F6120CFC53
:10280300740A120CF0E0FEA3E0FFEAF8EBF980187B
:102813008C828D83E088828983F0A3A882A9838C2C
:10282300828D83A3AC82AD838E088F0974FF250844
:102833001E74FF3509FFE5087002E50970D27F02B7
:10284300020D6243F30CE5F353F1FE53FF3FE5FF43
:102853007586C075C50975C23BEA4945C4F5C4020E
:0E28630000FBD2AF0200FBC2AF0200FB80FE02
:04000005000000E314
:00000001FF
