:020000040000FA
:030000000200E318
:10008300020E1900000080FB120113B900030200E5
:10009300CDE4900200780579028002F0A3D8FCD960
:1000A300FA900304AA82AB839001167867790180E2
:1000B30015E493A3AC82AD838A828B83F0A3AA82D7
:1000C300AB838C828D83D8E9D9E77582A2758323AC
:1000D30074001200F575828675830074001200F5B2
:1000E30075D0007581BF751000751102759F0002F0
:1000F300008BC09FF59FE473D09F22D083D082C032
:100103009FE493C0E0740193C0E0740293F59F22CF
:10011300790122FF00000000000000000000000041
:1001230000000025640D0A0053656E643A25730AC6
:100133000030313233343536373839414243444560
:100143004600286E756C6C20706F696E7465722939
:10015300003F3F3F000000803FF9021550B743BA0C
:10016300510000204100E7DB2E0000A040100000FA
:1001730000080000000A0000001200FE5C1E0012CE
:1001830000FE011F001200FE621F001200FE9120FC
:10019300001200FE1E21001200FEB621001200FE16
:1001A300F525001200FE2B26001200FE6026001229
:1001B30000FE1825001200FE3225001200FE532512
:1001C300001200FE7425001200FE5626001200FEE7
:1001D3005B26001200FE9024001200FEB8240012D9
:1001E30000FEEB24001200FECA21001200FEF621DD
:1001F300001200FE0C22001200FE2122001200FE5B
:100203003622001200FE6222001200FE8622001235
:1002130000FE9722001200FEA022001200FEA92277
:10022300001200FEBE22001200FED322001200FEC6
:10023300F322001200FE0623001200FE092300121F
:1002430000FE9425001200FEA525001200FEF123F6
:10025300001200FE1A24001200FE5A0E001200FEC5
:10026300321300E066701008A3E066700A08A3E08A
:1002730066700408A3E06622C3E7960809E79608B8
:1002830009E7960809E796A2D265D0332208080841
:10029300E630E711120ACC1202A8080808C6448007
:1002A300C618181822181818E9799EC608CAC6086D
:1002B300CBC608CCC6C370207996CACBCC7019794B
:1002C3008ECBCC70137986CC700EF9802ACA33CAD0
:1002D300CB33CBCC33CC331930E7F2CCCBCA33504E
:1002E300147004EA30E00DE4CA3ACACB3BCBCC3CF1
:1002F300CC500209C3E913C6CC182313C6CB18C6C6
:10030300CA18C6F92212034820F01430E72B74FFF1
:10031300FCFBFA747F8022E4FCFBFA7480801AB43D
:100323008008BC00F2BB00EF800F50EBF9E4C39AE6
:10033300FAE49BFBE49CFCE499C6CC18C6CB18C634
:10034300CA18C6F922E4C9C608CAC608CBC6D3333D
:100353000308CCC63392F0C3947F402E94184019FF
:10036300C9B90704CACBCC225025C309CA33CACBA7
:1003730033CBCC33CC33D9F422F4600DC9CCC313C3
:10038300CB13CBCA13CAD9F6CC22E4FCFBFA221452
:10039300FCFBFA22E6C33318461846184622E7C385
:1003A3003319471947194722181818E608460870E1
:1003B3000AE608C3337005E633F422082219191933
:1003C300E7094709700AE709C3337005E733F422E5
:1003D3000922E6084608C3134608336002E633F4ED
:1003E30022E7094709C3134709336002E733F422BD
:1003F3001203D560251203E46020120397700302F1
:1004030003A1080808E76670101819E766700A1850
:1004130019E76670041819E76622F4221203D560FF
:100423001C1203E4601712039770071203A17001F3
:10043300D322C0D01203A17006D0D0B322C322337B
:10044300D0D0501430E0F6C3E7960809E7960809C0
:10045300E7960809E796B32220E0D5E6970809E670
:10046300970809E6970809E697B3221203D5601B9C
:100473001203E4601612039770071203A1600CB312
:1004830022C0D01203A17005D0D022C32233D0D012
:10049300501330E0EBC3E7960809E7960809E7969F
:1004A3000809E7962220E0E4E6970809E697080999
:1004B300E6970809E69722001203D5604F1203E47A
:1004C3006012E7548066F61203AB70111203A17039
:1004D3003B090909F4F618F618F618F6221203C0B8
:1004E300701512039708080860EAE6447FF6187649
:1004F3008018E4F618F62212039760161203A1700F
:1005030012E4F608F608F608E65480F60909091815
:10051300181822EAC0E0EBC0E0ECC0E0EDC0E0E672
:1005230087F0A4FBACF008E687F0A42CFCE435F0DC
:10053300FA1809E687F0A42C4B60027401CA35F05F
:10054300FCE433FB09E687F0D2F7A42CCB35F0FCAF
:100553001908E687F0A42BCC35F0FBE433FD08192A
:10056300E687F0D2E7A42C4ACB35F0CD3400FC0962
:10057300E687F0D2E7A42DCC35F0FDE433FA091871
:10058300E687F0D2F7A42CCD35F0CA3400FC08E698
:1005930087F0D2E7D2F7A42ACC35F07A7E20E70B96
:1005A3000ACB33CBCD33CDCC33CC33CB33501470D8
:1005B30004ED30E00ED2F1E4CD3DCDCC3CCC3B504C
:1005C30005DA05C2F1EB547FC63308E63392F0FB3C
:1005D300E73309E733C39A502D2B70190C0D4C4D9B
:1005E30070151806E608C333700D20F10AA2F01344
:1005F300F6E418800B4024E4F630F002768018F617
:1006030018F618F68024D33B14501074FFA2F0138D
:10061300F6187680E418F618F6800FA2F013F61891
:10062300E63303F618ECF618EDF6D0E0FDD0E0FC67
:10063300D0E0FBD0E0FA221203E460461203D56057
:100643003DE9687008F618F618F618F62274806704
:10065300F712066E090909748067F7221203D56041
:100663001D1203E47005191919801A1203AB701FC8
:100673001203C0C37003E66733191919400718182A
:10068300182208080874FFF618F618F618F622124E
:1006930003C060171203A1702192F012039770191F
:1006A300501720F014080808090909E7F61819E794
:1006B300F61819E7F61819E7F62212039760E6E829
:1006C30069701F0808E62480F608E436F618547F9C
:1006D300B47F0CE654806007F6E418F618F6221887
:1006E3001822E9C6CC08C6CD08C6CE08C6CFC0E0DE
:1006F300E8C0E0EAC0E0EBC0E009E9F809E7FA097D
:10070300E7FBE6F918E6F8C3EC98ED99EE9AEBC22D
:10071300E7F5F0EFC2E795F0500E600CEBCFFBEA84
:10072300CEFAE9CDF9E8CCF8EAA2E7D2E7FAEB335F
:10073300FB13F5F0EEA2E7D2E7FEEF33FFC5F013AC
:10074300A2E730E601B313C5F0C3C0E0C0F07F00F9
:10075300C39BFB605B9418600C401AD0E023F9D074
:10076300E0F802083D8AF0E9486003D2F0E4AFF014
:10077300FAF9F8803BEB30E40D89F0EA6003D2F03C
:10078300E4AFF0F9CAF8EB30E30D88F0EF6002D282
:10079300F0AFF0E4CAC9F8EB54076014FBC3EA13E3
:1007A300FAE913F9E813F8EF135002D2E0FFDBED97
:1007B300D0E0C0E030E739C3E49FFFF5F0EC98FCEC
:1007C30042F0ED99FD42F0EE9AFE42F0D0E0F9D00E
:1007D300E0F8E5F0607AE923F9EE20E742D80280F9
:1007E30067C3EF33FFEC33FCED33FDEE33FE80EAFA
:1007F300EC28FCED39FDEE3AFED0E023F9D0E0F829
:100803004002801BC3EE13FEED13FDEC13FCEF134C
:100813005002D2E0FF08B800067F7F74FF802EEFFE
:100823003350178CF020F00260100CBC000C0DBD8F
:1008330000080EBE000408E860DFE933E813FFEEAA
:100843002313FE4F4D4C8008E95480FFE4FEFDFC6A
:10085300EE33EF33F47004FCFD7E80D0E0FBD0E098
:10086300FAD0E0F8D0E0CFC618CEC618CDC618CC63
:10087300C6F9221203D57004181818221203E47063
:100883000D74FFF61819F61819F61819F622E7541D
:100893008066F6120397700F1203A170F014F60826
:1008A300F608F608F680D11203A1700CF608F608D4
:1008B300768008E6447F80EC1203C3700C1203AE0B
:1008C30060BFE65480F6E480BB1203AE70051919CD
:1008D3001980A5E869700C763F18768018F618F62B
:1008E300E8F922E6CDC0E018ECC0E0E633CD33CD25
:1008F300D313F6E719FCE7191933CC33C3947F40BC
:100903000ECD9D502408E65480F6E418F6800FF4CB
:10091300043D14501408E6447FF6187680E418F674
:1009230018F6D0E0FCD0E0FD22CCD313CCFD18E4C4
:10093300C6CBC0E018E4C6CAC0E00808ED08C63359
:10094300E613F618E433C675F003C3CA97CA09CB96
:1009530097CB199C40047D08802EBD0003020A1F1B
:1009630016B6FF050606081618C3CA33CACB33CB1F
:1009730033CA27CA09CB37CB193CC37D08803E183D
:100983007D0820E75CC633C6CA33CACB33CB33DD1D
:10099300F1D5F0EB30E77BCA97CA09CB974ACB195D
:1009A3009C406F4B7025E620E0218066187D08C3CC
:1009B300CA97CA09CB97CB199CD3C633C6CA33CAC5
:1009C300CB33CB3350C9DDE7D5F0E1D3E4C636C62C
:1009D30008C636C608C636C608C636C618181880EE
:1009E30031C3CA97CA09CB97CB199CB34097C63377
:1009F300C6CA33CACB33CB33DD34D5F02EC6A2E01F
:100A0300C640C8CA27CA09CB37194A70BECB3CB403
:100A130080B90808E63308E633601F181818D0E0D9
:100A2300FAD0E0FBD0E0FCD0E0FD22187D08CA2715
:100A3300CA09CB37CB193CD3808013F618E4B67FB1
:100A430011F618B6FF0EF618C60470D208087680A1
:100A530080CAF618F618F680C5E4CFC0E0E4CEC02D
:100A6300E0E4CDC0E0E4CCC0E075F020C3E633F6AB
:100A730008E633F608E633F608E633F6181818ECFA
:100A830033FCED33FDEE33FEEF33FFC3EC9709ED9B
:100A93009709EE9709EF97191919400FFFEC97FC87
:100AA30009ED97FD09EE97FE191906D5F0BEECF78F
:100AB30009EDF709EEF709EFF7191919D0E0FCD0A2
:100AC300E0FDD0E0FED0E0FF22181818E4C396F64C
:100AD30008E496F608E496F608E496F622E0F608AB
:100AE300A3E0F608A3E0F608A3E0F622E6F008A3E5
:100AF300E6F008A3E6F008A3E6F022CAC0E0E6F0B9
:100B0300A308DAFAD0E0FA22CAC0E0E0A3C582CC97
:100B1300C582C583CDC583F0A3C582CCC582C583F9
:100B2300CDC583DAE6D0E0CA22C3E498F8E499F9A4
:100B3300120B6D8026C3E49AFAE49BFBE920E7E9F4
:100B4300120B6DE498F8E499F922C3E498F8E49958
:100B5300F9120B6DE498F8E499F9C3E49AFAE49B6B
:100B6300FB22EB20E7CFE920E7E0B90010BB000848
:100B7300E88AF084F8AAF022E4FBC8FA22EB702298
:100B83007B10C833C8C933C9335007C39AC3DBF2D8
:100B930080069A50012ADBEAC833F4C8C933F4C982
:100BA300FA2275F008E4C833C8C933C933C99AC9EE
:100BB3009B5004C92AC93BD5F0ECFBC833F4C8E405
:100BC300C9FA22251010AF08F5104002151180084C
:100BD300F51040021511D2AF22C0D0251010AF0876
:100BE300F510500205118008F51050020511D2AF1F
:100BF300D0D0222510F58210AF08F5104002151150
:100C03008008F51040021511D2AF851183222510FB
:100C1300F582E43511F58322E4732510C582C0E023
:100C2300E51134FFC583C0E0E510C3958224F8F8CD
:100C3300E4C5A8858311858210C5A8E8CEF0A3E595
:100C430020F0A37808E608F0A3DEFAEFF0A3E5812D
:100C530024FAF8E608F0A3E608F0A3E608F0A308F0
:100C630008E608F0A3E608F0A315811581D0E0FE9D
:100C7300D0E0F8158115811581E8C0E0EEC0E022CF
:100C8300851183851082E0A3FEE0A3F5207808E0B8
:100C9300A3F608DFFAE0A3FFE0A3C0E0E0A3C0E00F
:100CA300E0A3C0E0E0A3C0E0E0A3C0E0E4C5A88502
:100CB3008210858311C5A8D083D0820200FBC0D0E7
:100CC3002510C582C0E0E51134FFC583C0E0E510FF
:100CD300C3958224F310AF088583118582108008A1
:100CE300858311858210D2AFC8F0A3E9F0A3EAF09F
:100CF300A3EBF0A37908E709F0A3D8FAECF0A3ED8E
:100D0300F0A3EEF0A3EFF0A3D0E0F0A3D0E0F0A3C4
:100D1300D0E0F0A3E520F0A3E5F0F0A32285118352
:100D2300851082E0C0E0A3E0F9A3E0FAA3E0FBA30F
:100D33007808E0F608A3DFFAE0FCA3E0FDA3E0FEF9
:100D4300A3E0FFA3E0C0E0A3E0C0E0A3E0F5D0A3ED
:100D5300E0F520A3E0A3F5F0E4C5A885831185821F
:100D630010C5A8D082D083D0E0F8D0E032740280DE
:100D7300027401C0E0F404120BF6D0E0120AFE2262
:100D830074028000CCC0E0EDC0E0E510C39CCCADA4
:100D93001150011D10AF068C108D1180068C108D23
:100DA30011D2AF120B0BD0E0FDD0E0FC22D083D0E8
:100DB30082CCC0E0E493A36006120DDA1470FAE467
:100DC30093A36006120DF91470FAD0E0FCE493A328
:100DD300C0E0E493C0E022C0E0E493A3D39C5010AE
:100DE300E493A3C39C400AD0E0D0E0D0E0020DCD51
:100DF300A3A3A3D0E022C0E0E493A36C7009D0E0E6
:100E0300D0E0D0E0020DCDA3A3D0E022EAF5C1A249
:100E1300E950FCC2E922C0E074F2120CC1A2AFE4B3
:100E230092E0FEC2AFE5E9A2E650229002FCE06444
:100E3300007004A3E06400600E9002FCE0F8A3E0FD
:100E4300F5838882120C1B759B0053E9BFEEA2E069
:100E530092AF7F01020D2074F0120C1D74FD120B72
:100E6300C67402120C11E9F08A088B098C0A8D0BE7
:100E73007415120C11E0FCA3E0FD8510828511832B
:100E8300E4F0A3F0900346780C120AE07808790C9A
:100E930012041F5003020F38900310780C120AE05B
:100EA3007808790C1203F36003020F8C7417120C89
:100EB30011E07003020FCE851082851183C082C0BA
:100EC300837413120C11121D3ED083D0821212C2EE
:100ED300502C851082851183C3E094FCA3E094FF1A
:100EE300A2D265D03340177402120C11E4121DFE16
:100EF300F97413120C11C3E098F0A3E099F0741382
:100F0300120C111213007418120C11E07003020F6B
:100F1300CB7417120C11E4020FCD90034A780C1214
:100F23000AE07808790C120876851082851183E02F
:100F3300240A121E3B90034E780C120AE0780879BB
:100F43000C12041F40D4900352780C120AE0780864
:100F5300790C12041F4003020EAF900352780C1257
:100F63000AE07808790C120876121E3280D89003B2
:100F73004A780C120AE07808790C1204BA851082B8
:100F8300851183E024F6121303900356780C120A9A
:100F9300E07808790C12046E40D4900346780C1262
:100FA3000AE07808790C12046E4003020EAF900336
:100FB30052780C120AE07808790C1204BA85108270
:100FC30085118312130080D27401F07402120C1184
:100FD300E060077A007B000210CC1212D3506D122E
:100FE30012F1120C11E0FEA3E0FFEE7001EF7008A6
:100FF3007418120C11E0600B742E8C828D83F0A395
:101003000CAD837A007B0080091212F1120C1112CD
:101013001300EA24FF1AEB34FFFB8510828511834A
:101023001212B6500C7413120C11E07002A3E0708C
:10103300D885108285118374FFC39EF874FF9FF9CE
:101043001212C2500302119B7A0180898510828596
:101053001183121D3EC3E498FAE499FB806B850863
:101063000C85090D850A0E850B0F780C120308AE4B
:101073000CE50D3395E0F50EF50F780C1202907820
:1010830008790C12063A900352780C120AE0780899
:10109300790C1204BAEE1212E4EAF8EBF97401289F
:1010A3000AE439FBE87001E9701F7413120C11E0B4
:1010B3007002A3E070087418120C11E0600B742E18
:1010C3008C828D83F0A30CAD837413120C11121256
:1010D300B6508B90035A780C120AE07808790C12F8
:1010E300041F400302119B7E01EC24FFF8ED34FF43
:1010F300F97415120C11E0F508A3E0F5098882894B
:1011030083E0642E6010E02EF0643A70077430F0D0
:101113007E0180027E00E8FAE9FBEA24FF18EB3443
:10112300FFF9C3E5089AE5099B40D2EE7001E4603C
:10113300677402120C11E06036ECF8ED800A1212AB
:10114300A1E824FF18E934FFF9C3E50898E50999F4
:10115300501812128EE0642E70E4E824FEF582E942
:1011630034FFF58312129BF980D7121E32801E8C36
:10117300828D83A3AC82AD83ECF8ED800612128ED0
:1011830012129BF9C3E50898E5099940F07415120A
:101193000C111212CE7431F07417120C11E0700599
:1011A300801A1CAD83EC24FFF582ED34FFF583E058
:1011B300643060EEE0642E70031CAD837402120C85
:1011C30011E070030212761212E6A3A9831212D35E
:1011D3005018742D8C828D83F00CE9FD8510828567
:1011E3001183121D6812130E800A742B8C828D8357
:1011F300F00CE9FD7E007F00EC240AFCED3400FDD9
:10120300EE24010EEF3400FF1212A8120B65EA124E
:1012130012E41212A8120B6512131B7002A3E070E2
:10122300DFC3EE940212128540D6EEFAEFFBC3E45D
:101233009EF8E49FF9EC28F582ED39F583E0C0E0F0
:10124300C3E49AF8E49BF9EC28F8ED39F9EE28F8B1
:10125300EF39F974F528F58274FF39F583D0E0F09E
:10126300121CEBEE940112128550C3EC24F6FCED34
:1012730034FFFDECFAEDFB7403120BDC7F08020C68
:1012830083C3EF9400A2D265D03322E824FFFAE9A6
:1012930034FFFB8A828B83221212A118EB22E0888F
:1012A300828983F022851082851183121DD67A0AE2
:1012B3007B0022C3E09AA3E09BA2D265D03322C372
:1012C300E098A3E099A2D265D03322E0121D6022F8
:1012D300851082851183C3A3E09400A2D265D03325
:1012E3002224308C828D83F0A3AC82AD83227430B0
:1012F3008C828D83F0A3AC82AD83741322E024FF30
:10130300F0A3E034FFF022A3E03400F985108285D6
:101313001183E8F0A3E9F02285108285118312136B
:101323002522E8F0A3E9F0851082851183E0227479
:10133300F0120C1D74B0120BC68510828511831236
:101343001DE47418120C11ECF0A3EDF0740F120CE1
:1013530011E4F0A380227460120C11121D2E740488
:10136300120C11E0F97418120C111212CE120C1B8C
:10137300740F120C11121CF5F0121D9BFA121E1D94
:10138300120C11EAF074256A6010E070C9740F1230
:101393000C11121D2E745002127C121D9B642570B9
:1013A30019851082851183E024010812130A7460E1
:1013B300120C11121D2E792580AB740E120C11E440
:1013C300F0740D120C11E4F0740C120C11E4F074AF
:1013D30005120C11E4F0741E120C11A882A9837477
:1013E30002120C11800E7405120C11E06026851098
:1013F30082851183121321121D25121D88FA120DE5
:10140300B0000520E9132329142B17142D201430C1
:101413002D1431147405120C11EAF080D1740C12DE
:101423000C11E00480F4740D80F5740E80F1121D2C
:1014330088642A705B7462120C11121D93FB8A82FA
:101443008B83E0FCA3E0FD740A120C11ECF0A3ED16
:10145300F0EA24020A0AEB3400FB7462120C111244
:101463001DDC740A120C111212D9501F740A120CCB
:1014730011121D2EC3E49AFAE49BFB740A120C1199
:10148300121DE4740C120C11E004F012130F804CC3
:10149300740A120C11E4F0A3802F740A120C1112B7
:1014A3001D3EE875F00AA4F8AAF075F00AE9A42A2B
:1014B300F9E82508F8E93400F974D028F874FF39FD
:1014C300F9740A120C11121E42121DFEF583888252
:1014D300E0F50874D02508C3940A40BE740C120CBE
:1014E30011E06007740E120C11E4F0121D9B642EC0
:1014F300600302157E851082851183E0240108A311
:10150300E03400F912131B1212CFE0642A702C741A
:1015130062120C11121DA1F8A3E0F988828983E0FD
:10152300FEA3E0FFE824020808E93400F97462121C
:101533000C11121D7B121E42F080447E007F0012AC
:101543001D9BF50874D02508C3940A5032EE75F03C
:101553000AA4FEAAF075F00AEFA42AFFEE2508F804
:10156300EF3400F974D028FE74FF39FF85108285AB
:101573001183E02401F812130A80C47EFF7FFF7AEF
:1015830000851082851183121D20851082851183A9
:10159300E0FBA3E0F5838B82E0120DB000034CACBB
:1015A3001568AD156CAC15B0150A12130F121D9BFF
:1015B300FB121E1D120C11EBF0120DB00010009760
:1015C3001B45531A472E1A58521763531664FF17B5
:1015D30065531A664C1A672E1A69FF176EF3156F57
:1015E3004017705217738C16755217785217A31B36
:1015F3007462120C11121DC9120C11121315EA6038
:1016030035740F120C11E0FCA3E0FD3395E0FE747A
:1016130006120C11121DAAECF0A3EDF0A3EEF0A339
:10162300F07462120C11121DB1120C11121D7BE821
:10163300F0A3E902137B740F120C11121D3E740602
:10164300120C11121D93F5838A82E8F0A3E980D06E
:101653007462120C11121DAAE0C0E0741E120C1168
:10166300D0E0F07462120C11121DB1120C11121D94
:101673007B121315741F120C11A882A98374121202
:101683000C11E8F0A3E9021BBA7462120C11121DCB
:10169300C9120C111213157406120C11121DC91262
:1016A3000C11E02402FAA3E03400FB7462120C1163
:1016B300121DDC7402120C11121315E87001E9708B
:1016C3000C7402120C117433F0A37403F01212841D
:1016D30050047E107F277408120C11E4F0A38008D5
:1016E3007408120C11121CF5F07402120C11121D65
:1016F3003E88828983A3AA82AB837402120C1112DF
:101703001DE488828983E0600A7408120C11121D9B
:101713004240CD7402120C11121D0E7412120C11E0
:101723001213157408120C11121D68F97412120C9D
:1017330011E028F8A3E039F97402021682740D123D
:101743000C11E0600AEE7001EF70047E017F0074FB
:1017530062120C11121DC9120C11121E2A120C1145
:10176300E06470703C7406120C11121DBF120C1150
:10177300121E05120C11E02402121D72120C11121A
:101783001D7B12131590035E7808120AE0741A1277
:101793000C117808120AEF7405120C11E4F0021808
:1017A3009CEA60217406120C111212CE7808120AF8
:1017B300E07414120C117808120AEF7406120C115B
:1017C300E0240480147406120C11121DBF120C11B4
:1017D300121E05120C11E02402121D72120C1112BA
:1017E3001D7B121E2A120C11E0646F7005900362B8
:1017F3008096E06475708E900366808C7462120C20
:1018030011121DC9120C11121315EA601874061275
:101813000C111212CE780C120AE07406120C11E0AD
:101823002404F8801F7406120C11121DA1F50CA3D9
:10183300E0F50D3395E0F50EF50F7406120C11E08B
:1018430024020808121D73120C11121E12120C111D
:10185300780C120AEF9003107808120AE0780879DE
:101863000C12027B50217405120C11742DF07414A8
:10187300120C117808120AE07808120ACF741412B5
:101883000C117808120AEF9003667808120AE074C4
:101893001A120C117808120AEF744F120C11A88255
:1018A300A9837402120C111213157412120C111263
:1018B3001E15120C11C082C0839003107808120AFF
:1018C300E0D083D082780812026660097411120C8A
:1018D30011740180067411120C11E4F0EE7001EF23
:1018E3007006E070030219A37402120C11121D5248
:1018F300120C11121E15120C11780C120AE0741A34
:10190300120C117808120AE0780C7908120A5CE5C7
:10191300082422F582E5093403F583E0C0E074026C
:10192300120C111212CED0E0F07414120C11780CB8
:10193300120AE0741A120C117808120AE0780C7972
:1019430008120A5C7414120C11780C120AEF741446
:10195300120C11C082C0839003107808120AE0D0E1
:1019630083D082780812026660030218EB12128495
:10197300502E740E120C11E060267405120C11E047
:101983006004D2F08002C2F0740A120C11121CFE21
:10199300800E7402120C11121DF6120C11121D5836
:1019A3007402120C11121D0E744F120C11C082C05E
:1019B300837402120C11121D2ED083D082E582C3D0
:1019C3009AFAE5839BFBC3EA9EEB121D4B40C3745B
:1019D3000D120C11E07003021BBB7411120C11E009
:1019E3007003021BBB7404120C11E064786005E001
:1019F3006458701E1212A1E824FF18E934FFF97429
:101A030002120C11121DF6120C111212CE743002B6
:101A13001BBAE0646F6003021BBB7402120C111249
:101A23001D8E64307003021BBB80D47408120C112A
:101A33007401F0A3E4F07404120C11E024FEF0EE40
:101A43007001EF70147E0180177404120C11E4F01E
:101A53007408120C11E4F0A3F012128450047E06F1
:101A63007F007462120C11121DC9120C111213158E
:101A73007406120C111212CE780C120AE0740612BC
:101A83000C11E02404121D72120C11121E12120CFE
:101A930011780C120AEF9003107808120AE0780C00
:101AA300790812046E50227405120C11742DF0740F
:101AB30014120C117808120AE0E50BB2E7F50B7467
:101AC30014120C117808120AEF740A120C11121D69
:101AD3003E741E120C11E58228F8E58339F974026D
:101AE300120C11121315740D120C11E0F50878087D
:101AF300120D747409120C11E0F5087808120D74B4
:101B03007404120C11120D838E088F097808120DBC
:101B130070740A120C11E0F9741A120C117808127D
:101B23000AE0AA08AB09AC0AAD0B12025A740612FA
:101B33000BDC7412120C11121DE4740E120C11E062
:101B430060767405120C11E06004D2F08002C2F0DA
:101B5300740A120C11121CFE7412120C11C082C0F2
:101B6300837402120C11121D3ED083D082E0C398FD
:101B7300F8A3E099F9C3E89EE9121D4B503A7402A9
:101B8300120C11121D52120C11121DF6120C11120D
:101B93001D5880C4851082851183121D1712130EE0
:101BA3007402120C117442F0A37403F07412120C39
:101BB300117445F0A37403F07412120C11C082C0A7
:101BC300837402120C11121D3ED083D082E0C3989D
:101BD300FEA3E099FF740A120C11121D42500A74FD
:101BE30008120C11E4F0A380327405120C11E060AA
:101BF30004D2F08002C2F0740A120C11E0C39EF802
:101C0300A3E09FF9A2F0E492E0FAE8C39AF8E9941A
:101C130000F97408120C11E8F0A3E9F0740C120C2B
:101C230011E0702B80197460120C11121D34120C08
:101C3300111212CE120C1B740F120C11121E3874D7
:101C430008120C11121DEA120C111212D950D7747A
:101C530005120C11E060507460120C11121D2E74E9
:101C630005120C11E0F97418120C111212CE120C99
:101C73001B802C7460120C11121D2E7402120C1195
:101C8300121DA1F97418120C111212CE120C1B742E
:101C930002120C11121D207402120C11121315746E
:101CA3000F120C11121E38121CEB12128650C47440
:101CB3000C120C11E0700302137C7408120C111245
:101CC3001DEA120C111212D9500302137C74601214
:101CD3000C11121D34120C111212CE120C1B740FA4
:101CE300120C11121E3880D2EE24FF1EEF34FFFFB8
:101CF300C322E02401F0A3E0340022A2F0E492E046
:101D0300F8E0C398FEA3E09400FF22121D122212F2
:101D13001D17F922E024FFF8A3E034FF22E0121D8F
:101D230025222401F8A3E03400F922E0FAA3E0FB22
:101D330022E0FAA3E0FB7920741822121DD622C3F5
:101D4300E09EA3E0121D4B229FA2D265D033221244
:101D53001D12740222121D5F7430F022E0F8A3E01A
:101D6300F583888222121DD6C3E498F8E49922F8F9
:101D7300A3E03400F9746222121D7F22E0FAA3E08B
:101D8300F5838A8222851082851183121D7FE022CA
:101D9300121D7FE0FAA3E022851082851183121DB4
:101DA300A522121D5FE022121DA5121D6022121D25
:101DB300A52402F8A3E03400F9746222121DCFE8CF
:101DC300FAE9FB741422121DCF740622121D5F124E
:101DD3001DD622E0F8A3E0F922E0FCA3E0F5838C12
:101DE30082EAF0A3EBF022E024FFF0A3E034FFF05B
:101DF300740822E8F0A3E9F0740222121329F8A36D
:101E0300E022EAF0A3EBF0A3E4F0A3F074062212BD
:101E13001D7FE8F0A3E9F0741422851082851183F5
:101E2300E0240108121E50E8F0A3E9F074042285AF
:101E33001082851183E02401F0A3E03400F0221224
:101E430013252401F8121E50E8F0A3E922A3E0347D
:101E530000F98510828511832274F7120C1DE9FEA7
:101E6300EAF8EBF9E8FAE9FB740B2E8A828B83F02C
:101E7300900207E0F8A3E0F5838882A3A3A3A3A3BA
:101E8300E0600678617988800478417988E88A82FD
:101E93008B83A3F0E98A828B83A3A3F0900200E0F3
:101EA3008A828B83A3A3A3F0900207E0F8A3E0F553
:101EB300838882A3A3E0F8A3E0F98A828B83A3A398
:101EC300A3A3E8F0A3E9F08A828B83A3A3A3A3A32C
:101ED300A3ECF0A3EDF0900207E0F8A3E0F583880C
:101EE30082E0F8A3E0F98A828B83A3A3A3A3A3A32D
:101EF300A3A3E8F0A3E9F0790A7F01020C8374F24B
:101F0300120C1DECFEEDFF8908A908EAFCEBFD7A33
:101F1300097B0212017CE9FB7A0080348A0A750B83
:101F230000EE250AF582EF350BF583E0C0E08B0A5E
:101F3300750B008A0C750D00E50C250AF8E50D35C7
:101F43000BF9E82409F582E93402F583D0E0F00ABD
:101F5300EAC3950840C6E5082BF97F06020C837493
:101F6300F7120C1D7E7C7F0212021E1201CA790138
:101F7300EEFAEFFB1202068E828F83E0C2E7F08E49
:101F8300828F83E0640570538E828F83E0F97A7DBC
:101F93007B021202068E828F83A3E0A2E55004D255
:101FA300F08002C2F0A2F0E492E090030CF078809B
:101FB300790288828983A3E0A2E740030220868E08
:101FC300828F83A3A3A3E0FA900200E06A60030276
:101FD30020867401900201F00220868E828F83E0B6
:101FE30024F5900309F08E828F83E0F97A7D7B02DA
:101FF3001202068E828F83A3E0A2E55004D2F08002
:1020030002C2F0A2F0E492E090030CF08E828F8380
:10201300A3A3A3A3A3A3A3A3E0F8A3E0F9900305B9
:10202300E8F0A3E9F090030A7486F0A37402F09039
:102033000309E0F83395E0F990030AE028F8A3E0F8
:1020430039F988828983E090030DF088828983A31C
:10205300E0A2E75022900304E0FA8E828F83A3A3C9
:10206300A3E06A60128E828F83A3E054DF64417021
:1020730006740190030EF08E828F83A3A3A3E090D6
:102083000304F01201D01202247F01020C8374F4C2
:10209300120C1DEAFEEBFF1201E8E96401700479FA
:1020A3000180731201D0900207EEF0A3EFF09003CA
:1020B3000A7400F0A37400F07401900202F090031C
:1020C300107808120AE09002037808120AEF9002CF
:1020D30007E0F8A3E0F5838882A3A3A3A3E0F912A2
:1020E30001EE900207E0F8A3E0F5838882E0FAA30B
:1020F300E0FB1201F4900207E0F8A3E0F583888285
:10210300A3A3E0FAA3E0FB1201FA7A887B0112028F
:102113002A1201CA79007F04020C8374F4120C1D85
:10212300EAFEEBFF8C0A8D0B8908900202E0700334
:10213300120212E508C394675005850809800375E8
:10214300096785090812023012021EA908AC0AADFC
:102153000BEEFAEFFB120182E9F97A097B02120214
:102163000012022412020CE9900207E0F8A3E0F542
:10217300838882A3A3A3A3A3E0601C74009002013D
:10218300F07A4A7B021201DC900201E060047400E1
:1021930080027401FE80027E00900202E07003124E
:1021A3000218EE7007900200E02401F0EEF97F04BC
:1021B300020C83C082C0837400900202F0120218E2
:1021C300D083D0820200FBC082C083906189E04447
:1021D30060F074099061FAF074159061B2F07400C4
:1021E3009061AEF01202361202247900D083D082BD
:1021F3000200FBC082C08375F005E9A424D490617A
:102203008FF0D083D0820200FBC082C083EA90614A
:1022130074F0EB906175F0D083D0820200FBC08232
:10222300C083EA906172F0EB906173F0D083D08247
:102233000200FB74F6120C1D75E1EE7591FD7C0036
:1022430080138C08750900EA2508F582EB3509F53A
:1022530083E0F5D90CECC39940E87F02020C83C0FC
:1022630082C0838011E5D98A828B83F08A828B8333
:10227300A3AA82AB8319E9C3940150E9D083D08226
:102283000200FB75E1E9E591A2E150FA7591FD7950
:10229300000200FB75E1EC75E1E30200FB75E1EF81
:1022A30075E1EC0200FBC082C0839061A3E0C2E64B
:1022B300F0539AFED083D0820200FBC082C0839089
:1022C30061A3E0D2E6F0439A01D083D0820200FBFF
:1022D300C082C083A2AFE492E0FCC2AF9002FCEAEA
:1022E300F0A3EBF0ECA2E092AFD083D0820200FB2C
:1022F300C082C083906193E0542270F8D083D0826F
:102303000200FB0200FB74F6120C1D74F6120BC6DE
:1023130012019A801C7A017B001201BE7A647B0051
:102323001201E27A017B001201B87A847B03120165
:10233300E2A285E492E0F5087509007808120D70B1
:102343007C147D037402120C11AA82AB8312025413
:102353007402120BDC8510828511838582088583C4
:10236300097808120D707A197B031202487402125D
:102373000BDC790A851082851183AC82AD837AFFE9
:102383007BFF120194E9608D7A017B001201BE7A12
:10239300E87B031201E27A017B001201B8809212FA
:1023A30001D61201B21201C453F3DF53FDDF120150
:1023B300E8E9640170031201AC9003007422F0A3F6
:1023C3007420F07426900302F07401900303F090DC
:1023D30002FE7410F0A37426F07AFE7B0212018EC3
:1023E300E9640170031201AC12023C0200FB74F7B2
:1023F300120C1D8A828B83122487E9F08A828B83D5
:10240300E02401FCA3E03400FD8A828B83ECF0A37B
:10241300EDF07F01020C8374F6120C1D74FC120B99
:10242300C67402120C11EAF0A3EBF0ECFAEDFB74A4
:102433000E120C11A882A983851082851183E8F0FE
:10244300A3E9F08510828511838582088583097845
:1024530008120D707404120C1185820885830978A3
:1024630008120D707C4E7D021202607404120BDCA4
:102473007402120C11122487E4F07404120BDC7F33
:1024830002020C83E0F8A3E0F583888222C082C0B5
:102493008379001201A6E9601079011201A0790085
:1024A3001201A6E960031201AC79001201A0D083E6
:1024B300D0820200FBEBC313FBEA13FAEAF8EBF951
:1024C30074FF28FA74FF39FB7400687003740069A1
:1024D3006013000000000000000000000000000086
:1024E30000000080D70200FB74F7120C1DEAFEEB1C
:1024F300FFEEF8EFF974FF28FE74FF39FF740068EC
:10250300700374006960097AE87B031201DC80E1DF
:102513007F01020C8353F4F2E5F443FE0DE5FE5311
:10252300F5FE43FF0143900DE590D2A00200FBEAC4
:10253300A2E05002D290EA54026003859090EA54DC
:10254300046003859090EA54086002D2A00200FB65
:10255300EAA2E05002C290EA54026003859090EA36
:1025630054046003859090EA54086002C2A00200FC
:10257300FB75F10043F30CE5F353FF3FE5FF43869F
:102583008043864075C50943C23BE5C2C2E90200E8
:10259300FB74F7120C1DE9FA7B00120E0F7F010288
:1025A3000C8374F6120C1D74FE120BC6740C120C01
:1025B30011A882A983851082851183E8F0A3E9F02D
:1025C3008510828511838582088583097808120D19
:1025D300707508007509007808120D707C427D0241
:1025E3001202607404120BDC7402120BDC7F020211
:1025F3000C83748055C6FA53BEFBE59DA2E550FAE1
:10260300E59DA2E240F400740169700774494AF53C
:10261300C68005E970028AC6E5C6FAE59EFBEA6B49
:1026230070F943BE040200FBE9FAE59EA2E640040A
:102633007901801CEA700553C67F800874016A70B3
:102643000343C680E5C6FBE59EFCEB6C70F979009D
:0F2653000200FBD2AF0200FBC2AF0200FB80FE11
:04000005000000E314
:00000001FF
